:100000000C94E3020C9442140C941B140C94EE0D0B
:100010000C94EE0D0C94EE0D0C940B030C940B034E
:100020000C940B030C940B030C940B030C940B0318
:100030000C940B030C940B030C940B030C940B0308
:100040000C94D1130C940B030C94BC0D0C94960DD2
:100050000C940B030C940B030C940B030C940B03E8
:100060000C94B5110C940B0300000000003E5B4F94
:100070005B3E3E6B4F6B3E1C3E7C3E1C183C7E3C08
:10008000181C577D571C1C5E7F5E1C00183C180016
:10009000FFE7C3E7FF0018241800FFE7DBE7FF30A6
:1000A000483A060E2629792926407F050507407F14
:1000B00005253F5A3CE73C5A7F3E1C1C08081C1C87
:1000C0003E7F14227F22145F5F005F5F06097F017D
:1000D0007F006689956A606060606094A2FFA29468
:1000E00008047E040810207E201008082A1C080836
:1000F0001C2A08081E101010100C1E0C1E0C303884
:100100003E3830060E3E0E06000000000000005F84
:1001100000000007000700147F147F14242A7F2AA0
:100120001223130864623649562050000807030062
:10013000001C2241000041221C002A1C7F1C2A08AE
:10014000083E080800807030000808080808000011
:1001500060600020100804023E5149453E00427F85
:10016000400072494949462141494D331814127FD4
:100170001027454545393C4A494931412111090774
:100180003649494936464949291E000014000000F5
:1001900040340000000814224114141414140041C7
:1001A00022140802015909063E415D594E7C121184
:1001B000127C7F494949363E414141227F414141BC
:1001C0003E7F494949417F090909013E4141517337
:1001D0007F0808087F00417F41002040413F017FA8
:1001E000081422417F404040407F021C027F7F0470
:1001F00008107F3E4141413E7F090909063E4151B9
:10020000215E7F09192946264949493203017F01A8
:10021000033F4040403F1F2040201F3F4038403FA9
:10022000631408146303047804036159494D4300BF
:100230007F4141410204081020004141417F0402F6
:10024000010204404040404000030708002054548D
:1002500078407F284444383844444428384444286B
:100260007F385454541800087E090218A4A49C78BE
:100270007F0804047800447D40002040403D007F1A
:100280001028440000417F40007C047804787C08FA
:100290000404783844444438FC18242418182424CE
:1002A00018FC7C08040408485454542404043F44B3
:1002B000243C4040207C1C2040201C3C4030403CE2
:1002C00044281028444C9090907C4464544C440042
:1002D00008364100000077000000413608000201A6
:1002E0000204023C2623263C1EA1A161123A404092
:1002F000207A38545455592155557941225454780F
:1003000042215554784020545579400C1E527212A7
:100310003955555559395454545939555454580030
:1003200000457C410002457D420001457C407D1234
:1003300011127DF0282528F07C5455450020545496
:100340007C547C0A097F4932494949323A44444441
:100350003A324A4848303A4141217A3A424020787C
:10036000009DA0A07D3D4242423D3D4040403D3C7D
:1003700024FF2424487E4943662B2FFC2F2BFF09A2
:1003800029F620C0887E0903205454794100004496
:100390007D413048484A32384040227A007A0A0A81
:1003A000727D0D19317D2629292F282629292926F4
:1003B00030484D4020380808080808080808382F39
:1003C00010C8ACBA2F102834FA00007B00000814C3
:1003D0002A142222142A14085500550055AA55AA99
:1003E00055AAFF55FF55FF000000FF00101010FF39
:1003F00000141414FF001010FF00FF1010F010F094
:10040000141414FC001414F700FF0000FF00FF1484
:1004100014F404FC141417101F10101F101F1414D0
:10042000141F00101010F0000000001F101010101A
:100430001F10101010F010000000FF10101010100E
:1004400010101010FF10000000FF140000FF00FF4C
:1004500000001F10170000FC04F4141417101714E8
:1004600014F404F40000FF00F7141414141414140A
:10047000F700F7141414171410101F101F1414147D
:10048000F4141010F010F000001F101F0000001FE7
:1004900014000000FC140000F010F01010FF10FF1A
:1004A000141414FF141010101F00000000F010FFAF
:1004B000FFFFFFFFF0F0F0F0F0FFFFFF0000000093
:1004C00000FFFF0F0F0F0F0F3844443844FC4A4A17
:1004D0004A347E02020606027E027E0263554941CC
:1004E000633844443C04407E201E2006027E020203
:1004F00099A5E7A5991C2A492A1C4C7201724C3017
:100500004A4D4D303048784830BC625A463D3E49ED
:100510004949007E0101017E2A2A2A2A2A44445F91
:10052000444440514A444040444A51400000FF0185
:1005300003E080FF000008086B6B08361236243693
:10054000060F090F060000181800000010100030F8
:1005500040FF0101001F01011E00191D1712003C80
:100560003C3C3C000000000000000000240027008C
:100570002A00000000080002010000030407000038
:1005800000000000000000000000250028002B00F3
:1005900000000000230026002900040404040404D1
:1005A0000404020202020202030303030303010222
:1005B00004081020408001020408102001020408F1
:1005C00010207C1C921411241FBECFEFD8E0DEBF98
:1005D000CDBF15E0A0E0B1E0EEECFBE302C005907A
:1005E0000D92A83CB107D9F727E0A8ECB5E001C00F
:1005F0001D92A73BB207E1F712E0C2EED2E004C0C1
:100600002197FE010E94CF1DC13ED107C9F70E946C
:100610009C140C94DA1D0C940000FC01538D448D45
:10062000252F30E0842F90E0821B930B541710F09D
:10063000CF96089501970895FC01918D828D9817AA
:1006400061F0828DDF01A80FB11D5D968C91928DB6
:100650009F5F9F73928F90E008958FEF9FEF0895B3
:10066000FC01918D828D981731F0828DE80FF11D7C
:10067000858D90E008958FEF9FEF0895FC01918D97
:10068000228D892F90E0805C9F4F821B91098F7390
:10069000992708958BE396E00E943E0321E0892B81
:1006A00009F420E0822F0895FC01848DDF01A80F5A
:1006B000B11DA35ABF4F2C91848D90E001968F738A
:1006C0009927848FA689B7892C93A089B1898C91A9
:1006D00080648C93938D848D981306C00288F3896F
:1006E000E02D80818F7D80830895EF92FF920F939C
:1006F0001F93CF93DF93EC0181E0888F9B8D8C8DCE
:10070000981305C0E889F989808185FD24C0F62EFB
:100710000B8D10E00F5F1F4F0F731127E02E8C8D94
:10072000E8120CC00FB607FCFACFE889F98980817E
:1007300085FFF5CFCE010E945403F1CF8B8DFE01D2
:10074000E80FF11DE35AFF4FF0820B8FEA89FB8916
:100750008081806207C0EE89FF896083E889F9891A
:1007600080818064808381E090E0DF91CF911F9150
:100770000F91FF90EF900895CF93DF93EC01888D58
:100780008823C9F0EA89FB89808185FD05C0A88995
:10079000B9898C9186FD0FC00FB607FCF5CF80811B
:1007A00085FFF2CFA889B9898C9185FFEDCFCE0165
:1007B0000E945403E7CFDF91CF91089580E090E04D
:1007C000892B29F00E944A0381110C94000008959E
:1007D0000F931F93CF93DF93DC0155968C91559720
:1007E000823071F0833009F1813009F08CC01496A9
:1007F000ED91FC911597E41BF50BE21BF30B20C068
:100800001496ED91FC911597CF01861B970BBC01B7
:10081000615071091696ED91FC911797CF01841BD9
:10082000950BAC01421B530B6EC01696ED91FC91DB
:100830001797CF01861B970BBC0161507109FA0114
:1008400077FD1BC116968D919C91179768177907B4
:100850000CF013C1F7FF04C02E0F3F1FE0E0F0E0E3
:1008600014968D919C911597AF01420F531F8417D9
:1008700095071CF49C012E1B3F0B121613060CF05F
:10088000FCC0CB0177FD079643E0959587954A9587
:10089000E1F79695982F882797958795E80FF91F88
:1008A000EA5FFE4F6770772781E090E001C0880F14
:1008B0006A95EAF7482F0130110541F088F00230BF
:1008C000110509F0DAC02E0F3F1F15C02E0F3F1F74
:1008D000E217F30709F4D1C08081842B8193F8CF0C
:1008E00080952E0F3F1FE217F30709F4C6C09081D1
:1008F00098239193F8CFE217F30709F4BEC08081E3
:1009000084278193F8CF77FDB8C014968D919C9180
:100910001597681779070CF0B0C057FF04C0240F73
:10092000351F40E050E016968D919C911797FA0183
:10093000E20FF31F8E179F071CF49C01241B350B3D
:10094000121613060CF099C0A22F842F8695869557
:10095000869590E8899F600D711D1124FB01EA5F67
:10096000FE4F4770A9F198E0941B492F50E0EA012F
:10097000CE5EDA4F8881291790F4421B51092FEF80
:1009800030E002C0359527954A95E2F78223013081
:10099000110541F068F00230110589F06EC0013098
:1009A000110519F42081822B0CC00130110520F4AF
:1009B00080952081822305C00230110531F4208109
:1009C00082278083A91708F458C0A91BE058FF4F5D
:1009D000A83048F10230110559F4EF018A2F9881AF
:1009E00090959883C058DF4F88508830C0F730C04A
:1009F00081E00130110509F080E08195EF019A2F27
:100A00008883C058DF4F98509830D0F788EF8A0F0E
:100A100086958695869590E8899FE00DF11D1124B5
:100A2000E058FF4FA770AA2341F1B0E0A65FBA4F8C
:100A30008C910130110529F038F002301105D1F008
:100A40001CC09081892B18C080959081892314C087
:100A500088EF8A0F86958695869590E8899FE00DA8
:100A6000F11D1124E058FF4FA77039F0B0E0A65FE8
:100A7000BA4F8C91908189278083DF91CF911F910C
:100A80000F9108950F931F93CF93DF93DC01FB0128
:100A900055968C915597823081F0833019F18130D1
:100AA00051F514968D919C911597BC01641B750BA3
:100AB000AB0141505109BF0181C014966D917C91E9
:100AC0001597CB018E1B9F0BFC0116968D919C9167
:100AD0001797BC01641B750BAB0141505109E21B18
:100AE000F30B09C016966D917C9117976E1B7F0BC7
:100AF000621B730B63C057FD1CC116968D919C91B0
:100B00001797481759070CF014C1F7FF04C02E0FB0
:100B10003F1FE0E0F0E014968D919C911597BF0186
:100B2000620F731F861797071CF49C012E1B3F0B47
:100B3000121613060CF0FDC0CA0157FD079663E0BC
:100B4000959587956A95E1F79695982F88279795BB
:100B50008795E80FF91FEA5FFE4F4770552781E040
:100B600090E001C0880F4A95EAF7482F013011053F
:100B700041F088F00230110509F0DBC02E0F3F1F55
:100B800015C02E0F3F1FE217F30709F4D2C0808172
:100B9000842B8193F8CF80952E0F3F1FE217F30728
:100BA00009F4C7C0908198239193F8CFE217F30717
:100BB00009F4BFC0808184278193F8CF57FDB9C065
:100BC00014968D919C911597481759070CF0B1C058
:100BD00077FF04C0260F371F60E070E016968D91F6
:100BE0009C911797FB01E20FF31F8E179F071CF4D0
:100BF0009C01261B370B121613060CF09AC0A22F6D
:100C0000862F86958695869590E8899F400D511D83
:100C10001124FA01EA5FFE4F6770A9F198E0961B74
:100C2000492F50E0EA01CE5EDA4F8881291790F40F
:100C3000421B51092FEF30E002C0359527954A95A8
:100C4000E2F782230130110541F068F0023011050E
:100C500089F06FC00130110519F42081822B0CC07E
:100C60000130110520F480952081822305C00230D7
:100C7000110531F4208182278083A91708F459C017
:100C8000A91BE058FF4FA83048F10230110559F474
:100C9000EF018A2F988190959883C058DF4F885034
:100CA0008830C0F731C081E00130110509F080E0E3
:100CB0008195EF019A2F8883C058DF4F9850983064
:100CC000D0F788EF8A0F86958695869560E8869F8F
:100CD000E00DF11D1124E058FF4FA770AA2349F140
:100CE000B0E0A65FBA4F8C910130110529F038F0C1
:100CF00002301105D9F01DC09081892B03C0809569
:100D000090818923808315C088EF8A0F8695869508
:100D1000869570E8879FE00DF11D1124E058FF4F84
:100D2000A77039F0B0E0A65FBA4F8C919081892707
:100D3000E9CFDF91CF911F910F910895FC0177FDCD
:100D40009AC080859185681779070CF094C057FD8B
:100D500092C082859385481759070CF08CC085890D
:100D6000823009F07CC084819581DC01A61BB70B21
:100D7000BD016150710986819781FC01E41BF50B6F
:100D8000AF01415051090AC0813041F484819581FD
:100D9000841B950BAB01BC016150710921303105F9
:100DA00029F008F122303105E1F10895FA0157FDEB
:100DB0003796A3E0F595E795AA95E1F7F695FE2F0E
:100DC000EE27F795E7956E0F7F1FFB01EA5FFE4F59
:100DD0004770552781E090E001C0880F4A95EAF7F7
:100DE0009081892B3AC0FA0157FD379623E0F5959B
:100DF000E7952A95E1F7F695FE2FEE27F795E7950B
:100E00006E0F7F1FFB01EA5FFE4F4770552781E0A1
:100E100090E001C0880F4A95EAF780959081892378
:100E20001CC0FA0157FD379683E0F595E7958A9542
:100E3000E1F7F695FE2FEE27F795E7956E0F7F1FEA
:100E4000FB01EA5FFE4F4770552781E090E001C04B
:100E5000880F4A95EAF79081892780830895833027
:100E600009F092CF86819781861B970BBA01AC015E
:100E70004150510993CF08950895FC016370658B2B
:100E80008481958126813781613039F0633029F082
:100E900091878087338722870895318720879387BA
:100EA000828708952F923F924F925F926F927F9226
:100EB0008F929F92AF92BF92CF92DF92EF92FF926A
:100EC0000F931F93CF93DF93CDB7DEB76C970FB619
:100ED000F894DEBF0FBECDBF9C8F8B8F5B011A01D4
:100EE0001F830E833701C982DC0158964D915C91B6
:100EF00059974115510509F0E5C018968D919C91BF
:100F00001997681779070CF0CAC11A968D919C91B0
:100F10001B97281639060CF0C2C18C2C912CFB01B2
:100F200036E0C39EE00DF11D1124FB87EA871E16F3
:100F30001F060CF0B4C1C40133E0880F991F3A9525
:100F4000E1F79D878C87820D931D181619060CF00A
:100F5000A6C157968C91811103C0203B08F02F5FEA
:100F6000AB8DBC8DED91FC9111970284F385E02D42
:100F7000CD012A8F09952A8DB5E02B9F9001112470
:100F8000F5013596FF87EE87BB82AA822501A9016C
:100F90004A195B09598B488BC10108969B8B8A8B38
:100FA000E889F989E40DF51DE859FF4F9491988778
:100FB00061013D822C82A885A0FF13C0AB8DBC8D42
:100FC000ED91FC91B981B13031F40484F585E02DC7
:100FD0002E813F8116C00684F785E02DEE80FF80CC
:100FE0001AC0EE81FF816E167F06F1F0AB8DBC8DCD
:100FF000ED91FC91B981B13051F40484F585E02D77
:101000009301A601B2018B8D9C8D09950DC00684BC
:10101000F785E02D7301840194014C815D816A8123
:101020007B818B8D9C8D0995E885E695E887FFEFA0
:10103000CF1ADF0A2C813D81280D391D3D832C8379
:101040004A895B89C416D50609F0B5CF5FEF451A0A
:10105000550A8A819B81880D991D9B838A83AE8561
:10106000BF854A165B0609F09BCFEE81FF816E16A5
:101070007F0609F4F2C0EB8DFC8DA081B181F9816E
:10108000F13079F4B5016B5F7F4F5096ED91FC9193
:101090005197830128E030E0A1018B8D9C8D09954B
:1010A000DCC06A857B85681979091E96ED91FC91F3
:1010B0001F9773010C851D859401A1018B8D9C8D5B
:1010C0000995CBC0FA013496949132976591749149
:1010D000291BCB01B7E02B9F800D911D1124FA0134
:1010E000259134913B8B2A8BFC01459154915B8374
:1010F0004A83FC013296C490319654915E873296B1
:1011000014913196D4908981823058F0612E012E4D
:10111000000C7708AD2D0D2C000CBB0BB987A887F0
:1011200004C019861886612C712CAB8DBC8DED9195
:10113000FC9111970284F385E02DCD010995B981C9
:101140008B2E912C689CC001699C900D789C900D11
:101150001124FC01EA0DFB1DFD87EC871C82712C1C
:10116000612CE12F110FFF0B95012E0F3F1F3B87C5
:101170002A87AC0CB11CA5014E0F5F1F5F8B4E8BF5
:10118000C1018D0D911DD7FC9A95998F888F4E8541
:10119000641608F062C0862D90E048855985480F96
:1011A000591F489D9001499D300D589D300D1124C7
:1011B000D901A20DB31DB98BA88BAA84BB844C8422
:1011C0005D84DC80BA85DB1AE88DF98DE80FF91FA4
:1011D000FD8BEC8B8D2D8A0D2E893F89A216B306CF
:1011E000B9F1877061F48A819B810196EA89FB8954
:1011F000AA81BB81EA0FFB1F74909B838A8377FED1
:1012000020C0AB8DBC8DED91FC91B981B13061F402
:101210000484F585E02D2E813F814C895D89B501DF
:101220008B8D9C8D09950DC00684F785E02DEE8091
:10123000FF808401940148895989B2018B8D9C8D6E
:101240000995770CEFEFAE1ABE0A480C591CC2CFB5
:101250003C813C0D3C8363949ACFAB8DBC8DED916A
:10126000FC9111970688F789E02DCD016C960FB699
:10127000F894DEBF0FBECDBFDF91CF911F910F91CC
:10128000FF90EF90DF90CF90BF90AF909F908F90A6
:101290007F906F905F904F903F902F9009946C9645
:1012A0000FB6F894DEBF0FBECDBFDF91CF911F9177
:1012B0000F91FF90EF90DF90CF90BF90AF909F90F5
:1012C0008F907F906F905F904F903F902F900895F8
:1012D000AF92BF92CF92EF92FF920F931F93CF9353
:1012E000DF93EC01262F888D998D009709F040C07F
:1012F0006A3059F41D861C862C898E859F8538E0BE
:10130000239F800D911D112441C06D3009F4AAC0A6
:101310008E898823C1F03C898C859D8546E0349F69
:10132000800D911D112448855985481759075CF493
:101330001D861C868E859F8548E0349F800D911DFB
:1013400011249F878E87EA88FB88088919894E8532
:101350005F856C857D85CC88CE010E9452072C89E3
:101360008C859D8536E0239F800D911D112442C000
:101370006A3079F41D861C862C89FC013696E4912E
:101380008E859F852E9F800D911D11249F878E87AE
:1013900069C06D3009F466C0FC013496349163175E
:1013A00008F460C03196E491E61708F45BC0FC01D4
:1013B0003296A590B490462F50E0431B510937E078
:1013C000349FB001359F700D1124A60EB71EF50194
:1013D000329634913196E491332311F0E1110DC02E
:1013E000F5013496E4912C898C859D85E29F800DD2
:1013F000911D11249D878C8735C0F5013596449148
:101400005E89552311F16C89E32FF0E0E40FF11DA3
:1014100047FDFA956E9FD0016F9FB00D11244C854A
:101420005D854A0F5B1FE885F985E417F5076CF4C5
:101430001D861C86FC013696E4918E859F856E9FE5
:10144000800D911D11249F878E87EA88FB8808896B
:1014500019894E855F856C857D85CC88CE010E947B
:101460005207BECF81E090E0DF91CF911F910F91A5
:10147000FF90EF90CF90BF90AF9008956F927F92C2
:101480008F929F92AF92BF92CF92DF92EF92FF9294
:101490000F931F93CF93DF93EC014B015A01690126
:1014A0003801E881F9810284F385E02D0995E8810E
:1014B000F9810288F389E02D87019601A501B40125
:1014C000CE010995E881F981A501460D571D4150CE
:1014D00051090288F389E02D9601B401CE010995E6
:1014E000E881F9810088F189E02D9301A501B4011B
:1014F000CE010995E881F981C80CD91CB60161506B
:1015000071090088F189E02D9301A501CE010995AB
:10151000E881F9810688F789E02DCE01DF91CF912E
:101520001F910F91FF90EF90DF90CF90BF90AF9001
:101530009F908F907F906F900994CF92DF92EF925F
:10154000FF920F931F93CF93DF9300D000D000D072
:10155000CDB7DEB76C01DC01ED91FC91621773072A
:1015600089F4041715072CF4942F852FA801092F4F
:10157000182F041B150B98012F5F3F4F048CF58D1E
:10158000E02D12C04017510709F5261737072CF434
:10159000962F872FB901292F382F261B370B2F5F46
:1015A0003F4F068CF78DE02D8701C60109952696E1
:1015B0000FB6F894DEBF0FBECDBFDF91CF911F9164
:1015C0000F91FF90EF90DF90CF9008950284F38504
:1015D000E02D2D833E834B835C8369837A83099559
:1015E000D601ED91FC910488F589E02D2D813E8195
:1015F0004B815C8169817A81C6010995D601ED91A3
:10160000FC910688F789E02DC60126960FB6F8945E
:10161000DEBF0FBECDBFDF91CF911F910F91FF9025
:10162000EF90DF90CF900994EF92FF920F931F936A
:10163000DC01ED91FC9111971A960D911C911B976D
:1016400018962D913C91199700A0F1A1E02D7B01F6
:1016500040E050E060E070E009951F910F91FF902D
:10166000EF9008954F925F926F927F928F929F9228
:10167000AF92BF92CF92DF92EF92FF920F931F93A0
:10168000CF93DF9300D0CDB7DEB76C015A0139019B
:101690004801DC01ED91FC910284F385E02D698322
:1016A0007A8309956981462E7A81572E640C751CC0
:1016B000D601ED91FC91461457046CF40088F18931
:1016C000E02D87019401A501B201C6010995BFEF84
:1016D0004B1A5B0AEDCF0688F789E02DC6010F9003
:1016E0000F90DF91CF911F910F91FF90EF90DF90BE
:1016F000CF90BF90AF909F908F907F906F905F90B2
:101700004F900994AF92BF92CF92DF92EF92FF92E7
:101710000F931F93CF93DF9300D000D0CDB7DEB7E8
:101720005C016901DC01ED91FC910284F385E02DFF
:101730004B835C8369837A830995D501ED91FC9194
:1017400069817A819B012C0D3D1D2150310904884E
:10175000F589E02D78014B815C818A01C5010995ED
:10176000D501ED91FC910688F789E02DC5010F9018
:101770000F900F900F90DF91CF911F910F91FF90DD
:10178000EF90DF90CF90BF90AF900994AF92BF924F
:10179000CF92DF92EF92FF920F931F93CF93DF933D
:1017A00000D000D0CDB7DEB75C016901DC01ED915E
:1017B000FC910284F385E02D4B835C8369837A83FB
:1017C0000995D501ED91FC914B815C81C40ED51E2C
:1017D000B1E0CB1AD1080488F589E02D78018601A3
:1017E00069817A819B01C5010995D501ED91FC9133
:1017F0000688F789E02DC5010F900F900F900F908C
:10180000DF91CF911F910F91FF90EF90DF90CF90DC
:10181000BF90AF9009940895EF92FF920F931F939A
:10182000DC01ED91FC9100A0F1A1E02D09951F9143
:101830000F91FF90EF9008950F931F93DC01ED91AE
:10184000FC91068CF78DE02D09951F910F9108955D
:101850000F931F93DC01ED91FC91048CF58DE02D2D
:1018600009951F910F910895DC01ED91FC91008481
:10187000F185E02D099408952F923F924F925F9247
:101880006F927F928F929F92AF92BF92CF92DF9290
:10189000EF92FF920F931F93CF93DF9300D01F928D
:1018A000CDB7DEB74C017B836A836A01590117010A
:1018B0009801241B350B37FF03C031952195310961
:1018C000C5014A815B81841B950B97FF03C09195ED
:1018D0008195910951E059838217930714F0198279
:1018E0000BC09A2D8B2D5801092F182F9A818B81AF
:1018F000DB82CA82C92ED82E8A819B81A816B9069E
:101900005CF49C2D8D2D6801092F182F9A818B81F5
:10191000BB82AA82A92EB82E2501AA81BB814A1AB0
:101920005B0A38016C187D0877FE03C071946194DE
:101930007108720157FE03C0BFEFEB1AFB0AF59462
:10194000E794C016D1061CF00FEF1FEF1FC001E097
:1019500010E01CC0D401ED91FC91B9810484F5859F
:10196000E02D9101BB23C1F04A815B81B601C40126
:101970000995E618F708F7FE04C0C00ED11EE40C66
:10198000F51CEA81FB813196FB83EA834A815B8106
:10199000A416B506FCF604C0A6016A817B81E7CFD8
:1019A0000F900F900F90DF91CF911F910F91FF90AB
:1019B000EF90DF90CF90BF90AF909F908F907F90EF
:1019C0006F905F904F903F902F90089520910A065E
:1019D00030910B062817390771F490910806809111
:1019E0000906981741F0E0910806F0E0E853FA4F35
:1019F000808190E008958FEF9FEF089508951F93E1
:101A0000CF93DF93DC015C962D913C915D9721157E
:101A1000310539F481E090E013969C938E931297F0
:101A20003DC05196ED91FC91529750969C915097E4
:101A3000892F80951FB75E964C915E9741FB772763
:101A400070F941FD6095F8944081772311F0492B9E
:101A500001C048234083E9012197F1F748E0508114
:101A600060FF02C0592B01C058235083E901219720
:101A7000F1F76695415099F7772321F090818923FA
:101A8000808303C08081982B90831FBF5C968D91CB
:101A90009C915D970197F1F721E030E0C901DF915A
:101AA000CF911F91089520910A0630910B062817B7
:101AB000390771F4809109062091080690E0805C56
:101AC0009F4F821B910960E470E00E94851D08957C
:101AD00080E090E0089520910A0630910B062817C7
:101AE0003907B9F49091080680910906981789F092
:101AF000E0910806F0E0E853FA4F80812091080653
:101B000030E02F5F3F4F2F7333272093080690E07C
:101B100008958FEF9FEF0895089580E090E0089575
:101B200081E080930C0608950E94D51D1F920F92AC
:101B30000FB60F9211242F933F934F935F936F93A0
:101B40007F938F939F93AF93BF93EF93FF938BE319
:101B500096E00E945403FF91EF91BF91AF919F9146
:101B60008F917F916F915F914F913F912F910F9046
:101B70000FBE0F901F9018951F920F920FB60F92E5
:101B800011242F938F939F93EF93FF93E0914B0634
:101B9000F0914C068081E0915106F091520682FD51
:101BA00012C09081809154068F5F8F7320915506EB
:101BB000821751F0E0915406F0E0E55CF94F958F03
:101BC0008093540601C08081FF91EF919F918F9186
:101BD0002F910F900FBE0F901F9018951F920F928C
:101BE0000FB60F9211242F933F934F935F936F93F0
:101BF0007F938F939F93AF93BF93EF93FF93E09166
:101C00000A06F0910B06309709F451C0968DA6850F
:101C1000B785858591FF04C09C91892329F447C02D
:101C20009C91892309F043C0A389B4899C9185893B
:101C3000809589238C93868997890197F1F7608D28
:101C4000718DA685B785558538E020E0CB010197D9
:101C5000F1F7822F90E095958795282F4C91452399
:101C600009F02068315091F7868D81FD2095809193
:101C7000090690E001968F7399273091080638176E
:101C800049F0A0910906B0E0A853BA4F2C93809375
:101C9000090603C0868D8160868F828D938D0197A2
:101CA000F1F7A389B4899C918589892B8C93FF9145
:101CB000EF91BF91AF919F918F917F916F915F91C4
:101CC0004F913F912F910F900FBE0F901F9018953D
:101CD000E0910A06F0910B06E817F90769F4A38969
:101CE000B4899C918589809589238C9310920B06E9
:101CF00010920A0681E0089580E008950F931F93E3
:101D0000CF93DF930E943E10C7EFD6E082E08C8B2A
:101D100081E090E09B8B8A8B998B888B8DE190E0A2
:101D20009D878C871F861E866CE775E0CE010E941A
:101D30007E1483E08C8B85E290E09D878C8709E19F
:101D400010E01F870E8766E4CE010E9468098DE4CB
:101D500090E09D878C871F870E8763E5CE01DF911A
:101D6000CF911F910F910C94680980910D068335D6
:101D700019F481E090E00EC0843519F482E090E01F
:101D800009C08C3419F483E090E004C0813431F44C
:101D900084E090E0909305018093040108952091E0
:101DA0002E069091B107213208F04AC080912C068E
:101DB0008111FCCF32E030932C0631E030932B06BA
:101DC0003FEF30938F0710928E0720938D07A1E984
:101DD000B7E04DE657E0FA013E2F341B321718F4F6
:101DE0003D913193F9CF10926C0720916C07990FB8
:101DF000922B90936C0790912A06913061F4109287
:101E00002A0690916C079093BB009091BC0093FDC3
:101E1000F8CF95EC01C095EE9093BC0090912C0604
:101E20009230E1F390918F079F3F79F080918F0777
:101E3000803241F080918F07803331F084E005C01B
:101E400081E003C082E001C083E010922D06109271
:101E50002E0610929007089590911807992339F053
:101E60008EBD00000DB407FEFDCF8EB5089528E0AD
:101E700030E040E8E0911B07F0911C075081909101
:101E80002207909595239083E0911907F0911A0706
:101E900090912107542F582319F05081952B03C09E
:101EA0005081909595239083E0911B07F0911C073A
:101EB000508190912207952B9083469521503109AE
:101EC000C9F6089585ED8093BC008091BC0084FD27
:101ED000FCCF10922C06089540914707262F30E042
:101EE000240F311D21323105DCF420912C062430E1
:101EF000C9F4FC0180E090E0861758F43091470760
:101F00002191DC01AB5DB84FA30FB11D2C9301965D
:101F1000F3CF80914707680F6093470780E00895EB
:101F200081E0089582E00895089581E090E0309185
:101F3000290620912806321710F480E090E0919550
:101F40008195910908958091290690912806891715
:101F500030F48F5F8093290680E090E008958FEF42
:101F60009FEF08958091280690E020912906821B1A
:101F700091090895CF92DF92EF92FF920F931F93F2
:101F8000CF93DF937C01262F972F8A0180919007B2
:101F9000882391F0C62FD72F6E01C40ED51ECC1505
:101FA000DD0571F06991D701ED91FC910190F0810F
:101FB000E02DC7010995F3CF642F822F0E946C0F8B
:101FC000C801DF91CF911F910F91FF90EF90DF90AB
:101FD000CF900895CF93DF931F92CDB7DEB769837B
:101FE000209190072223D1F020912E06203240F03C
:101FF00021E030E0FC013383228380E090E015C0D3
:1020000080912D06E82FF0E0EF56F84F99819083EC
:102010008F5F80932D0680932E0605C061E0CE0170
:1020200001960E946C0F81E090E00F90DF91CF91BC
:1020300008953FB7F8948091240690912506A091C9
:102040002606B091270626B5A89B05C02F3F19F09C
:102050000196A11DB11D3FBFBA2FA92F982F882728
:10206000820F911DA11DB11DBC01CD0142E0660F83
:10207000771F881F991F4A95D1F7089580E094E053
:10208000E6E0F1E0DF019C011D9221503040E1F7D4
:102090000895CF93C82F809113078F3F59F1E09196
:1020A0001D07F0911E07808190912307982B908344
:1020B000E0911F07F09120072081909124079095CF
:1020C00092239083E0911D07F0911E07208190914B
:1020D00023079095922390838C2F0E942C0FE091E0
:1020E0001D07F0911E07908180912307892B808323
:1020F000CF9108958091110791E09093900780937C
:10210000B10710922D0610922E0660E08FE296E045
:102110000E94EA0F6C2F8FE296E00E94EA0FCF91A7
:102120000C94CF0EEF92FF920F931F93CF93DF93F8
:1021300081E20E94491080E00E9449108FE70E94CE
:10214000491082E20E94491080E00E94491087E015
:102150000E944910809113078F3F79F1E0911D078C
:10216000F0911E07908180912307892B8083E09155
:102170001F07F0912007908180912407892B80838D
:10218000E0911D07F0911E079081809123078095B3
:1021900089238083C6E0D1E089910E942C0F85E0DD
:1021A000C630D807C9F7E0911D07F0911E0790814E
:1021B00080912307892B808330C0F090B8008CE099
:1021C0008093B800C6E0D1E0EE24E394809111073B
:1021D000E09290078093B10710922D0610922E0680
:1021E00060E48FE296E00E94EA0F00E010E0FE015A
:1021F000E00FF11F60818FE296E00E94EA0F0F5F0F
:102200001F4F0031110599F70E94CF0E609685E0AF
:10221000C630D807D9F6F092B800DF91CF911F9160
:102220000F91FF90EF900895CF93DF93E091F70621
:10223000F091F8060190F081E02D682F87EF96E08D
:102240000995EC0164EC75E087EF96E00E94691453
:102250008C0F9D1FDF91CF9108958F929F92AF9227
:10226000BF92CF92DF92EF92FF920F931F93CF9383
:10227000DF93CDB7DEB7A1970FB6F894DEBF0FBEE0
:10228000CDBF6C01990FEE08FF08F7FE33C0E09157
:10229000F706F091F8060190F081E02D6DE287EFEE
:1022A00096E009958C0122273327A9012C193D09B5
:1022B0004E095F0919A2CE0181967C019AE0892E10
:1022C000912CA12CB12CCA01B901A50194010E9445
:1022D000991D605DF70162937F012115310541056C
:1022E000510589F7BF0187EF96E00E946914080F36
:1022F000191F20C0A701960119A28E010F5D1F4F63
:102300008AE0C82ED12CE12CF12CCA01B901A70119
:1023100096010E94991D605DF80162938F0121155D
:1023200031054105510589F7BF0187EF96E00E940D
:1023300069148C0164EC75E087EF96E00E946914E3
:10234000800F911FA1960FB6F894DEBF0FBECDBFD0
:10235000DF91CF911F910F91FF90EF90DF90CF9081
:10236000BF90AF909F908F9008951F920F920FB6DD
:102370000F9211242F933F934F935F936F937F930B
:102380008F939F93AF93BF93EF93FF938091B90087
:10239000887F803609F49CC068F5883209F45BC0F8
:1023A00090F4803109F454C038F4882309F4F6C05D
:1023B000883009F44DC0F6C0883109F44CC0803231
:1023C00009F45DC0EFC0803409F468C048F480337C
:1023D00009F455C0883309F0E5C080938F07D8C051
:1023E000803509F44FC0883509F45DC0883409F0A0
:1023F000D9C0D6C0883909F4C7C0A8F4883709F411
:1024000067C038F4883609F463C0803709F460C0C7
:10241000C9C0883809F4B8C0803909F45FC0803871
:1024200009F0C0C05BC0803B09F486C038F4803A34
:1024300009F466C0883A09F47FC0B4C0803C09F44E
:10244000A7C0883C09F4A4C0883B09F48AC0AAC08C
:1024500080916C0710C090918E0780918D0798171E
:1024600070F5E0918E0781E08E0F80938E07F0E08B
:10247000E359F84F80818093BB0085EC86C0809340
:102480008F078EC0E0918E0781E08E0F80938E07BC
:102490008091BB00F0E0E359F84F808390918E0764
:1024A00080918D076EC0E0918E0781E08E0F809342
:1024B0008E078091BB00F0E0E359F84F8083809154
:1024C0002B0681116DC081E080932A0684EA61C0E9
:1024D00083E080932C0610926B07CFCF80916B071F
:1024E000803208F051C0E0916B0781E08E0F80933D
:1024F0006B078091BB00F0E0E55BF84F8083BDCFB8
:1025000085EC8093BC0010922C0680916B07803282
:1025100030F4E0916B07F0E0E55BF84F10826091DA
:102520006B0770E0E0914907F0914A078BE497E070
:10253000099510926B0736C084E080932C061092A8
:10254000480710924707E0914507F0914607099523
:1025500080914707811105C081E080934707109261
:102560002507E091480781E08E0F80934807F0E04F
:10257000EB5DF84F80818093BB009091480780917C
:102580004707981708F479CF85E88093BC000AC004
:1025900085EC8093BC0010922C0604C010928F072B
:1025A0000E94620FFF91EF91BF91AF919F918F9128
:1025B0007F916F915F914F913F912F910F900FBE3F
:1025C0000F901F90189590E0FC01EE58FA4F34914F
:1025D000FC01E255FA4F2491FC01E656FA4FE491D2
:1025E000EE2309F43BC0332339F1333091F038F452
:1025F0003130A9F0323001F584B58F7D12C037300B
:1026000091F03830A1F03430B9F4809180008F7DA2
:1026100003C0809180008F77809380000DC084B5C7
:102620008F7784BD09C08091B0008F7703C08091FF
:10263000B0008F7D8093B000F0E0EE0FFF1FEA57EF
:10264000FA4FA591B4918FB7F894EC91611103C042
:1026500020952E2301C02E2B2C938FBF0895CF934E
:10266000DF9390E0FC01E255FA4F2491FC01E6561D
:10267000FA4F8491882361F190E0880F991FFC0143
:10268000E859FA4FC591D491FC01EA57FA4FA59148
:10269000B491611109C09FB7F89488812095822375
:1026A0008883EC912E230BC0623061F49FB7F894BD
:1026B0003881822F809583238883EC912E2B2C9355
:1026C0009FBF06C08FB7F894E8812E2B28838FBF59
:1026D000DF91CF9108958F929F92AF92BF92CF9248
:1026E000DF92EF92FF926B017C010E9419104B0167
:1026F0005C01C114D104E104F104F1F00E9419104D
:10270000DC01CB0188199909AA09BB09883E9340CD
:10271000A105B10570F321E0C21AD108E108F10862
:1027200088EE880E83E0981EA11CB11CC114D10450
:10273000E104F10419F7DDCFFF90EF90DF90CF9027
:10274000BF90AF909F908F9008950895CF92DF92A1
:10275000EF92FF920F931F93CF93DF936C017A0157
:102760008B01C0E0D0E0CE15DF0589F0D8016D9176
:102770008D01D601ED91FC910190F081E02DC60113
:102780000995892B11F47E0102C02196ECCFC70177
:10279000DF91CF911F910F91FF90EF90DF90CF903D
:1027A00008951F920F920FB60F9211242F933F930B
:1027B0008F939F93AF93BF938091B3079091B4078A
:1027C000A091B507B091B6073091B20723E0230F6F
:1027D0002D3720F40196A11DB11D05C026E8230F59
:1027E0000296A11DB11D2093B2078093B307909369
:1027F000B407A093B507B093B607809124069091D3
:102800002506A0912606B09127060196A11DB11DAF
:102810008093240690932506A0932606B09327065E
:10282000BF91AF919F918F913F912F910F900FBECC
:102830000F901F9018951F920F920FB60F921124B0
:102840002F933F934F935F936F937F938F939F93B8
:10285000AF93BF93EF93FF93E0910805F0910905C3
:102860000995FF91EF91BF91AF919F918F917F91CA
:102870006F915F914F913F912F910F900FBE0F90ED
:102880001F9018951F920F920FB60F9211242F933D
:102890003F934F935F936F937F938F939F93AF93E8
:1028A000BF93EF93FF93E0910605F091070509951B
:1028B000FF91EF91BF91AF919F918F917F916F9118
:1028C0005F914F913F912F910F900FBE0F901F90EE
:1028D00018956115710579F0FB0101900020E9F769
:1028E0003197AF01461B570BDC01ED91FC91028043
:1028F000F381E02D099480E090E008950F931F93F9
:10290000CF93DF93EC010E9469148C0164EC75E0B5
:10291000CE010E946914800F911FDF91CF911F910A
:102920000F91089582E495E09093D9068093D8069C
:1029300088ED96E00C94680E789484B5826084BD2E
:1029400084B5816084BD85B5826085BD85B58160B3
:1029500085BD80916E00816080936E001092810031
:1029600080918100826080938100809181008160EC
:1029700080938100809180008160809380008091AD
:10298000B10084608093B1008091B0008160809339
:10299000B00080917A00846080937A0080917A0000
:1029A000826080937A0080917A00816080937A00BF
:1029B00080917A00806880937A001092C100E09143
:1029C0004B06F0914C0682E08083E0914706F0913F
:1029D00048061082E0914906F0914A0687E6808316
:1029E00010925306E0914F06F091500686E08083E6
:1029F000E0914D06F0914E06808180618083E091E8
:102A00004D06F0914E06808188608083E0914D06EE
:102A1000F0914E06808180688083E0914D06F091B0
:102A20004E0680818F7D80831092F3061092F2060D
:102A30001092F1061092F0061092EF061092EE0638
:102A40008DEC90E09093F5068093F4069091E40667
:102A5000963108F057C025E530E03093EF0620931B
:102A6000EE062BEC30E03093F1062093F00620E9DF
:102A700030E03093F3062093F206209168009830FE
:102A800050F031E09E3008F430E081E001C0880F62
:102A90003A95EAF701C084E0822B80936800983071
:102AA00038F09E3040F0963148F020E030E008C029
:102AB0002DE630E005C02BE630E002C02CE630E029
:102AC0003093EC062093EB06983030F481E001C09F
:102AD000880F9A95EAF70EC0292F30E09E3018F43F
:102AE0002850310902C02E50310981E001C0880F01
:102AF0002A95EAF78093ED068091F4069091F50609
:102B00000197F1F78091F2069091F306892B21F15C
:102B100080910A0690910B0626E0883D9207E1F02D
:102B2000009711F00E94680E8091F6068E7F8093C8
:102B3000F606109209061092080688ED96E090932A
:102B40000B0680930A06E091EB06F091EC0690816B
:102B50008091ED06892B808363E875E088ED96E02F
:102B60000E947E1482E0809312078CE38093110709
:102B7000809113078F3F09F4BDC061E08091150774
:102B80000E942F1361E0809117070E942F138091FC
:102B90001707082E000C990BFC01E656FA4FE4913A
:102BA000F0E0EE0FFF1FEA57FA4F25913491309372
:102BB0001E0720931D07FC01E255FA4FE491E093B4
:102BC000230780911507082E000C990BFC01E6568F
:102BD000FA4FE491F0E0EE0FFF1FEA57FA4F25910C
:102BE00034913093200720931F07FC01E255FA4FE0
:102BF000E491E09324078091180781113EC061E0C1
:102C0000809113070E942F1361E0809114070E94A6
:102C10002F1380911407082E000C990BFC01E65627
:102C2000FA4FE491F0E0EE0FFF1FEA57FA4F2591BB
:102C3000349130931C0720931B07FC01E255FA4F97
:102C4000E491E093220780911307082E000C990B62
:102C5000FC01E656FA4FE491F0E0EE0FFF1FEA5751
:102C6000FA4F2591349130931A0720931907FC01EC
:102C7000E255FA4FE491E0932107809118078823E9
:102C800009F45FC0CFB7F89480911506811127C071
:102C9000E4EAF5E08491E8EBF5E09491E82FF0E0C8
:102CA000EE0FFF1FE859FA4FA591B491EC91E9237B
:102CB00021F461E08AE00E94E31261E08AE00E9470
:102CC0002F138CB580618CBD8CB580648CBD61E0A8
:102CD0008DE00E942F1361E08BE00E942F13809102
:102CE00015068F5F80931506CFBF80E58CBD81E010
:102CF0008DBD27C0109229061092280610922D062D
:102D000010922E0610922C0681E080932B061092D2
:102D10002A0661E082E10E94E31261E083E10E9401
:102D2000E3128091B9008E7F8093B9008091B90041
:102D30008D7F8093B90088E48093B80085E4809308
:102D4000BC008091160787FD1EC061E00E942F1312
:102D500061E0809116070E94E31261E070E080E07C
:102D600090E00E946B1360E0809116070E94E312CE
:102D70006AE070E080E090E00E946B1361E0809177
:102D800016070E94E3128EEA0E94491085ED0E9408
:102D9000491080E80E94491088EA0E9449108FE398
:102DA0000E94491083ED0E94491080E00E94491062
:102DB00080E40E9449108DE80E94491084E10E943D
:102DC000491080E20E94491080E00E94491081EA87
:102DD0000E94491088EC0E9449108AED0E94491017
:102DE00082E10E94491081E80E9449108FEC0E9404
:102DF000491089ED0E94491081EF0E9449108BED26
:102E00000E94491080E40E94491084EA0E944910FF
:102E100086EA0E9449108EE20E9449108FEA0E94C1
:102E2000491062E082E00E942F1361E088E00E9476
:102E30002F1361E089E00E942F130E943E100E9430
:102E40007E0E0E94921080E99DE09093070580938A
:102E50000605809169008C7F826080936900E89A02
:102E6000C1E0D0E039E1A32EB12C49E4242E312C6D
:102E700055E3C52ED12C6AE5462E512C78EE872ECF
:102E800073E0972EE1E26E2E712C809104019091F7
:102E900005018230910509F424C41CF4019749F01E
:102EA00028C58330910509F458C4049709F4C6C4B1
:102EB00020C50E947E0E88ED96E00E94530D1816E4
:102EC00019060CF016C50091220610912306C801C0
:102ED0000196909323068093220688ED96E00E9447
:102EE0006B0DF801E35FF94F80838B3219F40E9478
:102EF000B50EF2C38A3209F0FCC480910D06863407
:102F000009F04AC180910E06863409F045C120912E
:102F10000F062D3209F466C0022E000C330B20532D
:102F20003109289DA001299D500D389D500D112477
:102F300020911006022E000C330B2053310964E659
:102F4000629FC001639F900D1124840F951F2091F3
:102F50001106022E000C330B205331096AE0629FE8
:102F6000A001639F500D1124840F951F209112061C
:102F7000022E000C330B20533109820F931F9093C4
:102F8000030180930201209113062D3629F4D0937A
:102F90001F06C0931E060FC0233529F490921F060A
:102FA00080921E0608C02D3431F420E63AEE3093AC
:102FB0001F0620931E0640911E0650911F06849FF7
:102FC0009001859F300D949F300D1124C901330F5E
:102FD000AA0BBB0B80931A0690931B06A0931C06AA
:102FE000B0931D061092080710920707D0930A07A6
:102FF000C093090783E080930B07EE24E394F12C40
:1030000008E110E026E330E048E150E064E270E0DF
:1030100087EF96E00E949D0A07E110E026E330E08A
:1030200047E150E063E270E087EF96E00E949D0A7E
:1030300006E110E026E330E046E150E062E270E0B5
:1030400087EF96E00E949D0A00E310E024E230E062
:1030500048E150E064E270E087EF96E00E949D0A4C
:1030600023E230E047E150E063E270E087EF96E072
:103070000E949D0A22E230E046E150E062E270E008
:1030800087EF96E00E949D0A85E290E09093040706
:1030900080930307B0920607A092050766E487EFC6
:1030A00096E00E9468096FE975E088ED96E00E945D
:1030B0007E1461E088E00E94E31280910F068D3259
:1030C00091F181E080930B07D0930A07C093090721
:1030D000D0930807C0930707709204076092030714
:1030E000D0920607C09205078091020190910301DA
:1030F0000E942D1182E390E09093040780930307D0
:10310000D0920607C0920507809113060E94141101
:103110000E94921060911A0670911B0680911C0605
:1031200090911D062FC0D0930301C093020181E04E
:1031300080930B07D0930A07C0930907D093080721
:10314000C09307077092040760920307D0920607A6
:10315000C092050781E090E00E942D1182E390E08B
:103160009093040780930307D0920607C092050747
:10317000809113060E9414110E94921068EE73E071
:1031800080E090E00E946B130E947E0E0E949210DD
:1031900060E088E00E94E31280910D06863409F019
:1031A00046C180910E06833509F041C1109208078F
:1031B00010920707D0930A07C093090793E09093F2
:1031C0000B07EE24E394F12C08E110E026E330E055
:1031D00048E150E064E270E087EF96E00E949D0ACB
:1031E00007E110E026E330E047E150E063E270E001
:1031F00087EF96E00E949D0A06E110E026E330E0AA
:1032000046E150E062E270E087EF96E00E949D0A9E
:1032100000E310E024E230E048E150E064E270E0D6
:1032200087EF96E00E949D0A23E230E047E150E0FC
:1032300063E270E087EF96E00E949D0A22E230E0B0
:1032400046E150E062E270E087EF96E00E949D0A5E
:1032500025E230E03093040720930307B09206077D
:10326000A092050766E487EF96E00E9468096FE97F
:1032700075E088ED96E00E947E1461E088E00E948F
:10328000E312D0930301C093020131E030930B07A6
:10329000D0930A07C0930907D0930807C093070784
:1032A0007092040760920307D0920607C092050748
:1032B00081E090E00E942D1182E390E0909304075A
:1032C00080930307D0920607C092050780911306EA
:1032D0000E9414110E94921068EE73E080E090E06A
:1032E0000E946B131092080710920707D0930A07E9
:1032F000C093090783E080930B0708E110E02EE5F7
:1033000030E048E150E06CE470E087EF96E00E9426
:103310009D0A07E110E02EE530E047E150E06BE464
:1033200070E087EF96E00E949D0A06E110E02EE52E
:1033300030E046E150E06AE470E087EF96E00E94FA
:103340009D0A00E310E02CE430E048E150E06CE43A
:1033500070E087EF96E00E949D0A2BE430E047E1A1
:1033600050E06BE470E087EF96E00E949D0A2AE44B
:1033700030E046E150E06AE470E087EF96E00E94BA
:103380009D0A2DE430E03093040720930307B092A8
:103390000607A092050763E587EF96E00E9468099B
:1033A00065EA75E088ED96E00E947E1461E089E0B0
:1033B0000E94E31284E690E0909301018093000163
:1033C00091E090930B07D0930A07C0930907D0931D
:1033D0000807C09307073092040720920307D09292
:1033E0000607C092050784E690E00E942D115092D6
:1033F000040740920307D0920607C0920507809108
:1034000013060E9414110E94921064E670E080E09E
:1034100090E00E946B130E947E0E0E94921060E06A
:1034200088E00E94E31260E089E00E94E31280914C
:103430000D06833509F050C180910E06833509F0E1
:103440004BC120910F062D3209F466C0022E000CEC
:10345000330B20533109289DA001299D500D389D23
:10346000500D112420911006022E000C330B205316
:10347000310964E6629FC001639F900D1124840F9F
:10348000951F20911106022E000C330B2053310999
:103490006AE0629FA001639F500D1124840F951F65
:1034A00020911206022E000C330B20533109820F9B
:1034B000931F9093010180930001209113062D36F4
:1034C00029F4D0931F06C0931E060FC0233529F49C
:1034D00090921F0680921E0608C02D3431F420E61B
:1034E0003AEE30931F0620931E0640911E0650911F
:1034F0001F06849F9001859F300D949F300D1124ED
:10350000C901330FAA0BBB0B8093160690931706C5
:10351000A0931806B0931906109208071092070797
:10352000D0930A07C093090783E080930B07EE242A
:10353000E394F12C08E110E02EE530E048E150E0A2
:103540006CE470E087EF96E00E949D0A07E110E0CE
:103550002EE530E047E150E06BE470E087EF96E065
:103560000E949D0A06E110E02EE530E046E150E0C1
:103570006AE470E087EF96E00E949D0A00E310E0A5
:103580002CE430E048E150E06CE470E087EF96E036
:103590000E949D0A2BE430E047E150E06BE470E0CC
:1035A00087EF96E00E949D0A2AE430E046E150E071
:1035B0006AE470E087EF96E00E949D0A8DE490E057
:1035C0009093040780930307B0920607A092050723
:1035D00063E587EF96E00E94680965EA75E088ED8B
:1035E00096E00E947E1461E088E00E94E31261E0B0
:1035F00089E00E94E31280910F068D3281F181E013
:1036000080930B07D0930A07C0930907D09308074C
:10361000C09307073092040720920307D092060751
:10362000C092050780910001909101010E942D1127
:103630005092040740920307D0920607C0920507F4
:10364000809113060E9414110E9492106091160638
:103650007091170680911806909119062FC024E6E4
:1036600030E0309301012093000181E080930B074B
:10367000D0930A07C0930907D0930807C0930707A0
:103680003092040720920307D0920607C0920507E4
:1036900084E690E00E942D115092040740920307A7
:1036A000D0920607C0920507809113060E9414115C
:1036B0000E94921064E670E080E090E00E946B133C
:1036C0000E947E0E0E94921060E089E00E94E31248
:1036D00060E088E00E94E312109223061092220616
:1036E00008C10E943E1082E080930B07D0930A0726
:1036F000C0930907D0930807C093070710920407E7
:103700001092030710920607109205076BEA75E006
:1037100087EF96E00E947E1488ED96E00E94530D9C
:10372000181619060CF0E5C0009122061091230628
:10373000C8010196909323068093220688ED96E0B7
:103740000E946B0DF801E35FF94F80838B3209F41F
:10375000CECB8A3209F0CDC0BFCF0E943E1082E0AE
:1037600080930B07D0930A07C0930907D0930807EB
:10377000C093070784E190E09093040780930307C8
:10378000109206071092050765EB75E087EF96E04B
:103790000E947E1488ED96E00E94530D18161906BB
:1037A000ECF40091220610912306C8010196909333
:1037B00023068093220688ED96E00E946B0DF801A7
:1037C000E35FF94F80838B3219F40E94B50E02C07B
:1037D0008A3221F4109223061092220682E480930A
:1037E0007C0080917A00806480937A0080917A00D6
:1037F00086FDFCCF809178002091790090E0922B9B
:10380000909321068093200622E020930B07D0930B
:103810000A07C0930907D0930807C09307071092BF
:1038200004071092030724E130E030930607209349
:1038300005070E942D110E9492105BC00E943E104D
:1038400082E080930B07D0930A07C0930907D093B7
:103850000807C09307078AE090E0909304078093DD
:10386000030710920607109205076BEB75E087EFD0
:1038700096E00E947E1480910C068823F1F010924D
:103880000C0660E070E0CB010E946B1361E088E001
:103890000E94E31261E089E00E94E31262E370E0BB
:1038A00080E090E00E946B1360E089E00E94E312E8
:1038B00060E088E00E94E3121CC088ED96E00E9460
:1038C000530D18161906ACF4009122061091230628
:1038D000C8010196909323068093220688ED96E016
:1038E0000E946B0DF801E35FF94F80838B3209F47E
:1038F000FECA0E94DE03C9CA0F931F9310923206BC
:103900001092310608EE13E020E030E00093330619
:103910001093340620933506309336068EE195E0F9
:103920009093300680932F0610923E0610923D062B
:1039300000933F06109340062093410630934206C1
:1039400080E395E090933C0680933B0685EC90E005
:10395000909348068093470684EC90E090934A0643
:103960008093490680EC90E090934C0680934B0640
:1039700081EC90E090934E0680934D0682EC90E0AF
:103980009093500680934F0686EC90E090935206F9
:1039900080935106109254061092550610925606C6
:1039A000109257061092FA061092F90640E850E07D
:1039B0005093FC064093FB0680E490E09093FE0653
:1039C0008093FD06509300074093FF0690930207F3
:1039D0008093010710920C071092040710920307BE
:1039E000109206071092050761E060930B078FEFB6
:1039F0009FEF90930A07809309079093080780939D
:103A0000070760930D0710920E071092100710928F
:103A10000F0784E595E09093F8068093F7068FEF03
:103A200080931307809317078093150780931407DB
:103A300084E0809316071092DB061092DA0600935A
:103A4000DC061093DD062093DE063093DF0682E469
:103A500095E09093D9068093D8061092EF061092C5
:103A6000EE061092F1061092F0061092F3061092F4
:103A7000F2061092F5061092F4068091F6068E7FFB
:103A80008D7F8093F6068695817068278AE00E9474
:103A9000E31261E08AE00E942F13E8EBF5E0E49185
:103AA000E093E806E4EAF5E0E491F0E0EE0FFF1FB2
:103AB000EA57FA4F859194919093EA068093E9062C
:103AC00060E08BE00E942F138091F60681FD04C018
:103AD00061E08BE00E94E3128BE08093E406E9EB67
:103AE000F5E0E491E093E506E5EAF5E0E491F0E045
:103AF000EE0FFF1FE057FA4F859194919093E706E0
:103B00008093E6061F910F91089597FB072E16F4F8
:103B1000009407D077FD09D00E94BB1D07FC05D09B
:103B20003EF4909581959F4F0895709561957F4FD4
:103B30000895A1E21A2EAA1BBB1BFD010DC0AA1FEE
:103B4000BB1FEE1FFF1FA217B307E407F50720F006
:103B5000A21BB30BE40BF50B661F771F881F991F81
:103B60001A9469F760957095809590959B01AC01CA
:103B7000BD01CF010895AA1BBB1B51E107C0AA1FBD
:103B8000BB1FA617B70710F0A61BB70B881F991FFE
:103B90005A95A9F780959095BC01CD010895EE0F37
:103BA000FF1F0590F491E02D099481E090E0F894D6
:103BB0000C94DA1D12E0C2EED2E004C0FE010E94B5
:0E3BC000CF1D2196C33ED107C9F7F894FFCF61
:103BCE006400010001000000000000000000000081
:103BDE0000000000000000000000000000000000D7
:103BEE0000000000000000000000000000000000C7
:103BFE0000000000000000000000000000000000B7
:103C0E000000000000808080000000000000000026
:103C1E00000000000000008080C0C0000000000016
:103C2E000000000000000000000000000000000086
:103C3E000000000000000000000000000000000076
:103C4E000000000000000000000000000000000066
:103C5E000000000000000000000080C0E0F0F8FC52
:103C6E00F8E000000000000000000000000000006E
:103C7E000000008080808080008080000000008036
:103C8E008080808000FFFFFF000000008080808029
:103C9E0000008080000080FFFF8080008080008018
:103CAE008080800080800000000000808000008CFA
:103CBE008E84000080F8F8F88000000000000000FC
:103CCE00000000000000F0F0F0F0F0F0F0F0F0F086
:103CDE00F0F0E0E0C08000E0FCFEFFFFFF7FFFFFA2
:103CEE00FFFFFF00000000000000000000000000C9
:103CFE0000FEFFC70101010183FFFF00007CFEC72C
:103D0E000101010183FFFFFF0038FEC7830101019E
:103D1E0083C7FFFF000001FFFF010100FFFF070146
:103D2E00010100007FFF80000000FFFF7F0000FF09
:103D3E00FFFF000001FFFFFF010000000000000078
:103D4E00000000000000030F3F7F7FFFFFFFFFFF1B
:103D5E00FFFFE7C7C78F8F9FBFFFFFC3C0F0FFFFF7
:103D6E00FFFFFFFCFCFCFCFCFCFCFCF8F8F0F0E0B8
:103D7E00C00001030303030301030300000000015D
:103D8E000303030301010301000000010303030306
:103D9E000101030300000003030000000303000001
:103DAE0000000000000103030303030100000001F3
:103DBE0003010000000303010000000000000000EA
:103DCE0000000000000000000080C0E0F0F9FFFFDE
:103DDE00FFFFFF3F1F0F87C7F7FFFF1F1F3DFCF8B9
:103DEE00F8F8F87C7DFFFFFFFFFFFFFFFF7F3F0F1F
:103DFE00070030300000000000000000000000004E
:103E0E0000000000000000000000FEFEFC000000AC
:103E1E000000000000000000000000000000000094
:103E2E00000000E0C00000000000000000000000E4
:103E3E003030000000000000000000000000000014
:103E4E0000000000000000C0FEFFFFFFFFFFFFFFAD
:103E5E00FFFF7F7F3F1F0F071F7FFFFFF8F8FFFF5A
:103E6E00FFFFFFFEF8E00000000100000000000070
:103E7E000000FEFE000000FCFEFC0C06060EFCF828
:103E8E000000F0F81C0E0606060CFFFFFF0000FEF9
:103E9E00FE00000000FCFEFC00183C7E66E6CE84B0
:103EAE00000006FFFF0606FCFEFC0C0606060000E0
:103EBE00FEFE0000C0F8FC4E4646464E7C7840188A
:103ECE003C76E6CECC800000000000000000000032
:103EDE000000000000000000000001070F1F1F3F40
:103EEE003F3F3F1F0F0300000000000000000000D6
:103EFE0000000F0F0000000F0F0F000000000F0F4B
:103F0E00000003070E0C18180C060F0F0F0000010F
:103F1E000F0E0C180C0F070100040E0C180C0F07D7
:103F2E000000000F0F00000F0F0F00000000000038
:103F3E000F0F00000007070C0C181C0C06060004DF
:103F4E000E0C180C0F07000000000000000000000F
:103F5E000000000000000000000000000000000053
:103F6E000000000000000000000000000000000043
:103F7E000000000000000000000000000000000033
:103F8E000000000000000000000000000000000023
:103F9E000000000000000000000000000000000013
:103FAE000000000000000000000000000000000003
:103FBE0000000000000000000000000000000000F3
:103FCE00000000000000A513A513000103070F1F3A
:103FDE003F7F0080C0E0F0F8FCFE00000000EA0F1A
:103FEE00BA0F8D0D940FB20FA30F950F00000000A6
:103FFE007503A6130D03BC033E031C033003000020
:10400E000000FF0CA6138D0DFE0C530D6B0DE60C70
:10401E00000000006809A6138D0D8C0D9E063B0C4A
:10402E00340C0C0C280C1C0C3C0C0B0C3D073C07E8
:10403E00E8034205320B140B9D0A3E0A52454D4FC2
:10404E00544F00496E697469616C697A696E6720B4
:10405E0049324320646576696365732E2E2E0046C1
:10406E006F6375730053686F6F740054494D454C00
:10407E0041505345004C4153455200414355535412
:08408E0049434F000D0A000038
:00000001FF
