:100000000C94E3020C9455140C9402140C94010EFD
:100010000C94010E0C94010E0C940B030C940B0326
:100020000C940B030C940B030C940B030C940B0318
:100030000C940B030C940B030C940B030C940B0308
:100040000C94B8130C940B030C94CF0D0C94A90DC5
:100050000C940B030C940B030C940B030C940B03E8
:100060000C94C8110C940B0300000000003E5B4F81
:100070005B3E3E6B4F6B3E1C3E7C3E1C183C7E3C08
:10008000181C577D571C1C5E7F5E1C00183C180016
:10009000FFE7C3E7FF0018241800FFE7DBE7FF30A6
:1000A000483A060E2629792926407F050507407F14
:1000B00005253F5A3CE73C5A7F3E1C1C08081C1C87
:1000C0003E7F14227F22145F5F005F5F06097F017D
:1000D0007F006689956A606060606094A2FFA29468
:1000E00008047E040810207E201008082A1C080836
:1000F0001C2A08081E101010100C1E0C1E0C303884
:100100003E3830060E3E0E06000000000000005F84
:1001100000000007000700147F147F14242A7F2AA0
:100120001223130864623649562050000807030062
:10013000001C2241000041221C002A1C7F1C2A08AE
:10014000083E080800807030000808080808000011
:1001500060600020100804023E5149453E00427F85
:10016000400072494949462141494D331814127FD4
:100170001027454545393C4A494931412111090774
:100180003649494936464949291E000014000000F5
:1001900040340000000814224114141414140041C7
:1001A00022140802015909063E415D594E7C121184
:1001B000127C7F494949363E414141227F414141BC
:1001C0003E7F494949417F090909013E4141517337
:1001D0007F0808087F00417F41002040413F017FA8
:1001E000081422417F404040407F021C027F7F0470
:1001F00008107F3E4141413E7F090909063E4151B9
:10020000215E7F09192946264949493203017F01A8
:10021000033F4040403F1F2040201F3F4038403FA9
:10022000631408146303047804036159494D4300BF
:100230007F4141410204081020004141417F0402F6
:10024000010204404040404000030708002054548D
:1002500078407F284444383844444428384444286B
:100260007F385454541800087E090218A4A49C78BE
:100270007F0804047800447D40002040403D007F1A
:100280001028440000417F40007C047804787C08FA
:100290000404783844444438FC18242418182424CE
:1002A00018FC7C08040408485454542404043F44B3
:1002B000243C4040207C1C2040201C3C4030403CE2
:1002C00044281028444C9090907C4464544C440042
:1002D00008364100000077000000413608000201A6
:1002E0000204023C2623263C1EA1A161123A404092
:1002F000207A38545455592155557941225454780F
:1003000042215554784020545579400C1E527212A7
:100310003955555559395454545939555454580030
:1003200000457C410002457D420001457C407D1234
:1003300011127DF0282528F07C5455450020545496
:100340007C547C0A097F4932494949323A44444441
:100350003A324A4848303A4141217A3A424020787C
:10036000009DA0A07D3D4242423D3D4040403D3C7D
:1003700024FF2424487E4943662B2FFC2F2BFF09A2
:1003800029F620C0887E0903205454794100004496
:100390007D413048484A32384040227A007A0A0A81
:1003A000727D0D19317D2629292F282629292926F4
:1003B00030484D4020380808080808080808382F39
:1003C00010C8ACBA2F102834FA00007B00000814C3
:1003D0002A142222142A14085500550055AA55AA99
:1003E00055AAFF55FF55FF000000FF00101010FF39
:1003F00000141414FF001010FF00FF1010F010F094
:10040000141414FC001414F700FF0000FF00FF1484
:1004100014F404FC141417101F10101F101F1414D0
:10042000141F00101010F0000000001F101010101A
:100430001F10101010F010000000FF10101010100E
:1004400010101010FF10000000FF140000FF00FF4C
:1004500000001F10170000FC04F4141417101714E8
:1004600014F404F40000FF00F7141414141414140A
:10047000F700F7141414171410101F101F1414147D
:10048000F4141010F010F000001F101F0000001FE7
:1004900014000000FC140000F010F01010FF10FF1A
:1004A000141414FF141010101F00000000F010FFAF
:1004B000FFFFFFFFF0F0F0F0F0FFFFFF0000000093
:1004C00000FFFF0F0F0F0F0F3844443844FC4A4A17
:1004D0004A347E02020606027E027E0263554941CC
:1004E000633844443C04407E201E2006027E020203
:1004F00099A5E7A5991C2A492A1C4C7201724C3017
:100500004A4D4D303048784830BC625A463D3E49ED
:100510004949007E0101017E2A2A2A2A2A44445F91
:10052000444440514A444040444A51400000FF0185
:1005300003E080FF000008086B6B08361236243693
:10054000060F090F060000181800000010100030F8
:1005500040FF0101001F01011E00191D1712003C80
:100560003C3C3C000000000000000000240027008C
:100570002A00000000080002010000030407000038
:1005800000000000000000000000250028002B00F3
:1005900000000000230026002900040404040404D1
:1005A0000404020202020202030303030303010222
:1005B00004081020408001020408102001020408F1
:1005C0001020E71CDD1C11241FBECFEFD8E0DEBFDA
:1005D000CDBF15E0A0E0B1E0E0EDFCE302C0059086
:1005E0000D92A83CB107D9F727E0A8ECB5E001C00F
:1005F0001D92AF3BB207E1F712E0C2EED2E004C0B9
:100600002197FE010E94501EC13ED107C9F70E94EA
:10061000A5140C945B1E0C940000FC01538D448DBA
:10062000252F30E0842F90E0821B930B541710F09D
:10063000CF96089501970895FC01918D828D9817AA
:1006400061F0828DDF01A80FB11D5D968C91928DB6
:100650009F5F9F73928F90E008958FEF9FEF0895B3
:10066000FC01918D828D981731F0828DE80FF11D7C
:10067000858D90E008958FEF9FEF0895FC01918D97
:10068000228D892F90E0805C9F4F821B91098F7390
:100690009927089583E496E00E943E0321E0892B88
:1006A00009F420E0822F0895FC01848DDF01A80F5A
:1006B000B11DA35ABF4F2C91848D90E001968F738A
:1006C0009927848FA689B7892C93A089B1898C91A9
:1006D00080648C93938D848D981306C00288F3896F
:1006E000E02D80818F7D80830895EF92FF920F939C
:1006F0001F93CF93DF93EC0181E0888F9B8D8C8DCE
:10070000981305C0E889F989808185FD24C0F62EFB
:100710000B8D10E00F5F1F4F0F731127E02E8C8D94
:10072000E8120CC00FB607FCFACFE889F98980817E
:1007300085FFF5CFCE010E945403F1CF8B8DFE01D2
:10074000E80FF11DE35AFF4FF0820B8FEA89FB8916
:100750008081806207C0EE89FF896083E889F9891A
:1007600080818064808381E090E0DF91CF911F9150
:100770000F91FF90EF900895CF93DF93EC01888D58
:100780008823C9F0EA89FB89808185FD05C0A88995
:10079000B9898C9186FD0FC00FB607FCF5CF80811B
:1007A00085FFF2CFA889B9898C9185FFEDCFCE0165
:1007B0000E945403E7CFDF91CF91089580E090E04D
:1007C000892B29F00E944A0381110C94000008959E
:1007D0000F931F93CF93DF93DC0155968C91559720
:1007E000823071F0833009F1813009F08CC01496A9
:1007F000ED91FC911597E41BF50BE21BF30B20C068
:100800001496ED91FC911597CF01861B970BBC01B7
:10081000615071091696ED91FC911797CF01841BD9
:10082000950BAC01421B530B6EC01696ED91FC91DB
:100830001797CF01861B970BBC0161507109FA0114
:1008400077FD1BC116968D919C91179768177907B4
:100850000CF013C1F7FF04C02E0F3F1FE0E0F0E0E3
:1008600014968D919C911597AF01420F531F8417D9
:1008700095071CF49C012E1B3F0B121613060CF05F
:10088000FCC0CB0177FD079643E0959587954A9587
:10089000E1F79695982F882797958795E80FF91F88
:1008A000E65FFE4F6770772781E090E001C0880F18
:1008B0006A95EAF7482F0130110541F088F00230BF
:1008C000110509F0DAC02E0F3F1F15C02E0F3F1F74
:1008D000E217F30709F4D1C08081842B8193F8CF0C
:1008E00080952E0F3F1FE217F30709F4C6C09081D1
:1008F00098239193F8CFE217F30709F4BEC08081E3
:1009000084278193F8CF77FDB8C014968D919C9180
:100910001597681779070CF0B0C057FF04C0240F73
:10092000351F40E050E016968D919C911797FA0183
:10093000E20FF31F8E179F071CF49C01241B350B3D
:10094000121613060CF099C0A22F842F8695869557
:10095000869590E8899F600D711D1124FB01E65F6B
:10096000FE4F4770A9F198E0941B492F50E0EA012F
:10097000CE5EDA4F8881291790F4421B51092FEF80
:1009800030E002C0359527954A95E2F78223013081
:10099000110541F068F00230110589F06EC0013098
:1009A000110519F42081822B0CC00130110520F4AF
:1009B00080952081822305C00230110531F4208109
:1009C00082278083A91708F458C0A91BE058FF4F5D
:1009D000A83048F10230110559F4EF018A2F9881AF
:1009E00090959883C058DF4F88508830C0F730C04A
:1009F00081E00130110509F080E08195EF019A2F27
:100A00008883C058DF4F98509830D0F788EF8A0F0E
:100A100086958695869590E8899FE00DF11D1124B5
:100A2000E058FF4FA770AA2341F1B0E0A65FBA4F8C
:100A30008C910130110529F038F002301105D1F008
:100A40001CC09081892B18C080959081892314C087
:100A500088EF8A0F86958695869590E8899FE00DA8
:100A6000F11D1124E058FF4FA77039F0B0E0A65FE8
:100A7000BA4F8C91908189278083DF91CF911F910C
:100A80000F9108950F931F93CF93DF93DC01FB0128
:100A900055968C915597823081F0833019F18130D1
:100AA00051F514968D919C911597BC01641B750BA3
:100AB000AB0141505109BF0181C014966D917C91E9
:100AC0001597CB018E1B9F0BFC0116968D919C9167
:100AD0001797BC01641B750BAB0141505109E21B18
:100AE000F30B09C016966D917C9117976E1B7F0BC7
:100AF000621B730B63C057FD1CC116968D919C91B0
:100B00001797481759070CF014C1F7FF04C02E0FB0
:100B10003F1FE0E0F0E014968D919C911597BF0186
:100B2000620F731F861797071CF49C012E1B3F0B47
:100B3000121613060CF0FDC0CA0157FD079663E0BC
:100B4000959587956A95E1F79695982F88279795BB
:100B50008795E80FF91FE65FFE4F4770552781E044
:100B600090E001C0880F4A95EAF7482F013011053F
:100B700041F088F00230110509F0DBC02E0F3F1F55
:100B800015C02E0F3F1FE217F30709F4D2C0808172
:100B9000842B8193F8CF80952E0F3F1FE217F30728
:100BA00009F4C7C0908198239193F8CFE217F30717
:100BB00009F4BFC0808184278193F8CF57FDB9C065
:100BC00014968D919C911597481759070CF0B1C058
:100BD00077FF04C0260F371F60E070E016968D91F6
:100BE0009C911797FB01E20FF31F8E179F071CF4D0
:100BF0009C01261B370B121613060CF09AC0A22F6D
:100C0000862F86958695869590E8899F400D511D83
:100C10001124FA01E65FFE4F6770A9F198E0961B78
:100C2000492F50E0EA01CE5EDA4F8881291790F40F
:100C3000421B51092FEF30E002C0359527954A95A8
:100C4000E2F782230130110541F068F0023011050E
:100C500089F06FC00130110519F42081822B0CC07E
:100C60000130110520F480952081822305C00230D7
:100C7000110531F4208182278083A91708F459C017
:100C8000A91BE058FF4FA83048F10230110559F474
:100C9000EF018A2F988190959883C058DF4F885034
:100CA0008830C0F731C081E00130110509F080E0E3
:100CB0008195EF019A2F8883C058DF4F9850983064
:100CC000D0F788EF8A0F86958695869560E8869F8F
:100CD000E00DF11D1124E058FF4FA770AA2349F140
:100CE000B0E0A65FBA4F8C910130110529F038F0C1
:100CF00002301105D9F01DC09081892B03C0809569
:100D000090818923808315C088EF8A0F8695869508
:100D1000869570E8879FE00DF11D1124E058FF4F84
:100D2000A77039F0B0E0A65FBA4F8C919081892707
:100D3000E9CFDF91CF911F910F910895FC0177FDCD
:100D40009AC080859185681779070CF094C057FD8B
:100D500092C082859385481759070CF08CC085890D
:100D6000823009F07CC084819581DC01A61BB70B21
:100D7000BD016150710986819781FC01E41BF50B6F
:100D8000AF01415051090AC0813041F484819581FD
:100D9000841B950BAB01BC016150710921303105F9
:100DA00029F008F122303105E1F10895FA0157FDEB
:100DB0003796A3E0F595E795AA95E1F7F695FE2F0E
:100DC000EE27F795E7956E0F7F1FFB01E65FFE4F5D
:100DD0004770552781E090E001C0880F4A95EAF7F7
:100DE0009081892B3AC0FA0157FD379623E0F5959B
:100DF000E7952A95E1F7F695FE2FEE27F795E7950B
:100E00006E0F7F1FFB01E65FFE4F4770552781E0A5
:100E100090E001C0880F4A95EAF780959081892378
:100E20001CC0FA0157FD379683E0F595E7958A9542
:100E3000E1F7F695FE2FEE27F795E7956E0F7F1FEA
:100E4000FB01E65FFE4F4770552781E090E001C04F
:100E5000880F4A95EAF79081892780830895833027
:100E600009F092CF86819781861B970BBA01AC015E
:100E70004150510993CF08950895FC016370658B2B
:100E80008481958126813781613039F0633029F082
:100E900091878087338722870895318720879387BA
:100EA000828708952F923F924F925F926F927F9226
:100EB0008F929F92AF92BF92CF92DF92EF92FF926A
:100EC0000F931F93CF93DF93CDB7DEB76C970FB619
:100ED000F894DEBF0FBECDBF9C8F8B8F5B011A01D4
:100EE0001F830E833701C982DC0158964D915C91B6
:100EF00059974115510509F0E5C018968D919C91BF
:100F00001997681779070CF0CAC11A968D919C91B0
:100F10001B97281639060CF0C2C18C2C912CFB01B2
:100F200036E0C39EE00DF11D1124FB87EA871E16F3
:100F30001F060CF0B4C1C40133E0880F991F3A9525
:100F4000E1F79D878C87820D931D181619060CF00A
:100F5000A6C157968C91811103C0203B08F02F5FEA
:100F6000AB8DBC8DED91FC9111970284F385E02D42
:100F7000CD012A8F09952A8DB5E02B9F9001112470
:100F8000F5013596FF87EE87BB82AA822501A9016C
:100F90004A195B09598B488BC10108969B8B8A8B38
:100FA000E889F989E40DF51DE859FF4F9491988778
:100FB00061013D822C82A885A0FF13C0AB8DBC8D42
:100FC000ED91FC91B981B13031F40484F585E02DC7
:100FD0002E813F8116C00684F785E02DEE80FF80CC
:100FE0001AC0EE81FF816E167F06F1F0AB8DBC8DCD
:100FF000ED91FC91B981B13051F40484F585E02D77
:101000009301A601B2018B8D9C8D09950DC00684BC
:10101000F785E02D7301840194014C815D816A8123
:101020007B818B8D9C8D0995E885E695E887FFEFA0
:10103000CF1ADF0A2C813D81280D391D3D832C8379
:101040004A895B89C416D50609F0B5CF5FEF451A0A
:10105000550A8A819B81880D991D9B838A83AE8561
:10106000BF854A165B0609F09BCFEE81FF816E16A5
:101070007F0609F4F2C0EB8DFC8DA081B181F9816E
:10108000F13079F4B5016B5F7F4F5096ED91FC9193
:101090005197830128E030E0A1018B8D9C8D09954B
:1010A000DCC06A857B85681979091E96ED91FC91F3
:1010B0001F9773010C851D859401A1018B8D9C8D5B
:1010C0000995CBC0FA013496949132976591749149
:1010D000291BCB01B7E02B9F800D911D1124FA0134
:1010E000259134913B8B2A8BFC01459154915B8374
:1010F0004A83FC013296C490319654915E873296B1
:1011000014913196D4908981823058F0612E012E4D
:10111000000C7708AD2D0D2C000CBB0BB987A887F0
:1011200004C019861886612C712CAB8DBC8DED9195
:10113000FC9111970284F385E02DCD010995B981C9
:101140008B2E912C689CC001699C900D789C900D11
:101150001124FC01EA0DFB1DFD87EC871C82712C1C
:10116000612CE12F110FFF0B95012E0F3F1F3B87C5
:101170002A87AC0CB11CA5014E0F5F1F5F8B4E8BF5
:10118000C1018D0D911DD7FC9A95998F888F4E8541
:10119000641608F062C0862D90E048855985480F96
:1011A000591F489D9001499D300D589D300D1124C7
:1011B000D901A20DB31DB98BA88BAA84BB844C8422
:1011C0005D84DC80BA85DB1AE88DF98DE80FF91FA4
:1011D000FD8BEC8B8D2D8A0D2E893F89A216B306CF
:1011E000B9F1877061F48A819B810196EA89FB8954
:1011F000AA81BB81EA0FFB1F74909B838A8377FED1
:1012000020C0AB8DBC8DED91FC91B981B13061F402
:101210000484F585E02D2E813F814C895D89B501DF
:101220008B8D9C8D09950DC00684F785E02DEE8091
:10123000FF808401940148895989B2018B8D9C8D6E
:101240000995770CEFEFAE1ABE0A480C591CC2CFB5
:101250003C813C0D3C8363949ACFAB8DBC8DED916A
:10126000FC9111970688F789E02DCD016C960FB699
:10127000F894DEBF0FBECDBFDF91CF911F910F91CC
:10128000FF90EF90DF90CF90BF90AF909F908F90A6
:101290007F906F905F904F903F902F9009946C9645
:1012A0000FB6F894DEBF0FBECDBFDF91CF911F9177
:1012B0000F91FF90EF90DF90CF90BF90AF909F90F5
:1012C0008F907F906F905F904F903F902F900895F8
:1012D000AF92BF92CF92EF92FF920F931F93CF9353
:1012E000DF93EC01262F888D998D009709F040C07F
:1012F0006A3059F41D861C862C898E859F8538E0BE
:10130000239F800D911D112441C06D3009F4AAC0A6
:101310008E898823C1F03C898C859D8546E0349F69
:10132000800D911D112448855985481759075CF493
:101330001D861C868E859F8548E0349F800D911DFB
:1013400011249F878E87EA88FB88088919894E8532
:101350005F856C857D85CC88CE010E9452072C89E3
:101360008C859D8536E0239F800D911D112442C000
:101370006A3079F41D861C862C89FC013696E4912E
:101380008E859F852E9F800D911D11249F878E87AE
:1013900069C06D3009F466C0FC013496349163175E
:1013A00008F460C03196E491E61708F45BC0FC01D4
:1013B0003296A590B490462F50E0431B510937E078
:1013C000349FB001359F700D1124A60EB71EF50194
:1013D000329634913196E491332311F0E1110DC02E
:1013E000F5013496E4912C898C859D85E29F800DD2
:1013F000911D11249D878C8735C0F5013596449148
:101400005E89552311F16C89E32FF0E0E40FF11DA3
:1014100047FDFA956E9FD0016F9FB00D11244C854A
:101420005D854A0F5B1FE885F985E417F5076CF4C5
:101430001D861C86FC013696E4918E859F856E9FE5
:10144000800D911D11249F878E87EA88FB8808896B
:1014500019894E855F856C857D85CC88CE010E947B
:101460005207BECF81E090E0DF91CF911F910F91A5
:10147000FF90EF90CF90BF90AF9008956F927F92C2
:101480008F929F92AF92BF92CF92DF92EF92FF9294
:101490000F931F93CF93DF93EC014B015A01690126
:1014A0003801E881F9810284F385E02D0995E8810E
:1014B000F9810288F389E02D87019601A501B40125
:1014C000CE010995E881F981A501460D571D4150CE
:1014D00051090288F389E02D9601B401CE010995E6
:1014E000E881F9810088F189E02D9301A501B4011B
:1014F000CE010995E881F981C80CD91CB60161506B
:1015000071090088F189E02D9301A501CE010995AB
:10151000E881F9810688F789E02DCE01DF91CF912E
:101520001F910F91FF90EF90DF90CF90BF90AF9001
:101530009F908F907F906F900994CF92DF92EF925F
:10154000FF920F931F93CF93DF9300D000D000D072
:10155000CDB7DEB76C01DC01ED91FC91621773072A
:1015600089F4041715072CF4942F852FA801092F4F
:10157000182F041B150B98012F5F3F4F048CF58D1E
:10158000E02D12C04017510709F5261737072CF434
:10159000962F872FB901292F382F261B370B2F5F46
:1015A0003F4F068CF78DE02D8701C60109952696E1
:1015B0000FB6F894DEBF0FBECDBFDF91CF911F9164
:1015C0000F91FF90EF90DF90CF9008950284F38504
:1015D000E02D2D833E834B835C8369837A83099559
:1015E000D601ED91FC910488F589E02D2D813E8195
:1015F0004B815C8169817A81C6010995D601ED91A3
:10160000FC910688F789E02DC60126960FB6F8945E
:10161000DEBF0FBECDBFDF91CF911F910F91FF9025
:10162000EF90DF90CF900994EF92FF920F931F936A
:10163000DC01ED91FC9111971A960D911C911B976D
:1016400018962D913C91199700A0F1A1E02D7B01F6
:1016500040E050E060E070E009951F910F91FF902D
:10166000EF9008954F925F926F927F928F929F9228
:10167000AF92BF92CF92DF92EF92FF920F931F93A0
:10168000CF93DF9300D0CDB7DEB76C015A0139019B
:101690004801DC01ED91FC910284F385E02D698322
:1016A0007A8309956981462E7A81572E640C751CC0
:1016B000D601ED91FC91461457046CF40088F18931
:1016C000E02D87019401A501B201C6010995BFEF84
:1016D0004B1A5B0AEDCF0688F789E02DC6010F9003
:1016E0000F90DF91CF911F910F91FF90EF90DF90BE
:1016F000CF90BF90AF909F908F907F906F905F90B2
:101700004F900994AF92BF92CF92DF92EF92FF92E7
:101710000F931F93CF93DF9300D000D0CDB7DEB7E8
:101720005C016901DC01ED91FC910284F385E02DFF
:101730004B835C8369837A830995D501ED91FC9194
:1017400069817A819B012C0D3D1D2150310904884E
:10175000F589E02D78014B815C818A01C5010995ED
:10176000D501ED91FC910688F789E02DC5010F9018
:101770000F900F900F90DF91CF911F910F91FF90DD
:10178000EF90DF90CF90BF90AF900994AF92BF924F
:10179000CF92DF92EF92FF920F931F93CF93DF933D
:1017A00000D000D0CDB7DEB75C016901DC01ED915E
:1017B000FC910284F385E02D4B835C8369837A83FB
:1017C0000995D501ED91FC914B815C81C40ED51E2C
:1017D000B1E0CB1AD1080488F589E02D78018601A3
:1017E00069817A819B01C5010995D501ED91FC9133
:1017F0000688F789E02DC5010F900F900F900F908C
:10180000DF91CF911F910F91FF90EF90DF90CF90DC
:10181000BF90AF9009940895EF92FF920F931F939A
:10182000DC01ED91FC9100A0F1A1E02D09951F9143
:101830000F91FF90EF9008950F931F93DC01ED91AE
:10184000FC91068CF78DE02D09951F910F9108955D
:101850000F931F93DC01ED91FC91048CF58DE02D2D
:1018600009951F910F910895DC01ED91FC91008481
:10187000F185E02D099408952F923F924F925F9247
:101880006F927F928F929F92AF92BF92CF92DF9290
:10189000EF92FF920F931F93CF93DF9300D01F928D
:1018A000CDB7DEB74C017B836A836A01590117010A
:1018B0009801241B350B37FF03C031952195310961
:1018C000C5014A815B81841B950B97FF03C09195ED
:1018D0008195910951E059838217930714F0198279
:1018E0000BC09A2D8B2D5801092F182F9A818B81AF
:1018F000DB82CA82C92ED82E8A819B81A816B9069E
:101900005CF49C2D8D2D6801092F182F9A818B81F5
:10191000BB82AA82A92EB82E2501AA81BB814A1AB0
:101920005B0A38016C187D0877FE03C071946194DE
:101930007108720157FE03C0BFEFEB1AFB0AF59462
:10194000E794C016D1061CF00FEF1FEF1FC001E097
:1019500010E01CC0D401ED91FC91B9810484F5859F
:10196000E02D9101BB23C1F04A815B81B601C40126
:101970000995E618F708F7FE04C0C00ED11EE40C66
:10198000F51CEA81FB813196FB83EA834A815B8106
:10199000A416B506FCF604C0A6016A817B81E7CFD8
:1019A0000F900F900F90DF91CF911F910F91FF90AB
:1019B000EF90DF90CF90BF90AF909F908F907F90EF
:1019C0006F905F904F903F902F9008952091CA059F
:1019D0003091CB052817390771F49091C805809193
:1019E000C905981741F0E091C805F0E0E451FA4FBD
:1019F000808190E008958FEF9FEF089508951F93E1
:101A0000CF93DF93DC015C962D913C915D9721157E
:101A1000310539F481E090E013969C938E931297F0
:101A20003DC05196ED91FC91529750969C915097E4
:101A3000892F80951FB75E964C915E9741FB772763
:101A400070F941FD6095F8944081772311F0492B9E
:101A500001C048234083E9012197F1F748E0508114
:101A600060FF02C0592B01C058235083E901219720
:101A7000F1F76695415099F7772321F090818923FA
:101A8000808303C08081982B90831FBF5C968D91CB
:101A90009C915D970197F1F721E030E0C901DF915A
:101AA000CF911F9108952091CA053091CB05281739
:101AB000390771F48091C9052091C80590E0805CD8
:101AC0009F4F821B910960E470E00E94061E0895FA
:101AD00080E090E008952091CA053091CB05281749
:101AE0003907B9F49091C8058091C905981789F014
:101AF000E091C805F0E0E451FA4F80812091C805DB
:101B000030E02F5F3F4F2F7333272093C80590E0BD
:101B100008958FEF9FEF0895089580E090E0089575
:101B200081E08093CC052FB7F89480912C0690919A
:101B30002D06A0912E06B0912F062FBF8093E805A9
:101B40009093E905A093EA05B093EB0508950E94F0
:101B5000561E1F920F920FB60F9211242F933F9390
:101B60004F935F936F937F938F939F93AF93BF93A5
:101B7000EF93FF9383E496E00E945403FF91EF916B
:101B8000BF91AF919F918F917F916F915F914F9195
:101B90003F912F910F900FBE0F901F9018951F929D
:101BA0000F920FB60F9211242F938F939F93EF9361
:101BB000FF93E0915306F09154068081E09159061D
:101BC000F0915A0682FD12C0908180915C068F5F71
:101BD0008F7320915D06821751F0E0915C06F0E072
:101BE000ED5BF94F958F80935C0601C08081FF917A
:101BF000EF919F918F912F910F900FBE0F901F909B
:101C000018951F920F920FB60F9211242F933F93A6
:101C10004F935F936F937F938F939F93AF93BF93F4
:101C2000EF93FF93E091CA05F091CB05309709F44B
:101C300051C0968DA685B785858591FF04C09C917E
:101C4000892329F447C09C91892309F043C0A389C3
:101C5000B4899C918589809589238C9386899789FD
:101C60000197F1F7608D718DA685B785558538E0B0
:101C700020E0CB010197F1F7822F90E095958795B1
:101C8000282F4C91452309F02068315091F7868D1B
:101C900081FD20958091C90590E001968F73992769
:101CA0003091C805381749F0A091C905B0E0A4519A
:101CB000BA4F2C938093C90503C0868D8160868FAF
:101CC000828D938D0197F1F7A389B4899C918589C1
:101CD000892B8C93FF91EF91BF91AF919F918F9141
:101CE0007F916F915F914F913F912F910F900FBE18
:101CF0000F901F901895E091CA05F091CB05E81759
:101D0000F90769F4A389B4899C9185898095892311
:101D10008C931092CB051092CA0581E0089580E063
:101D200008950F931F93CF93DF930E945110CFEF2D
:101D3000D6E082E08C8B81E090E09B8B8A8B998B44
:101D4000888B8DE190E09D878C871F861E866DEBCA
:101D500075E0CE010E94911483E08C8B85E290E0C7
:101D60009D878C8709E110E01F870E8766E4CE010E
:101D70000E9468098DE490E09D878C871F870E87FD
:101D800063E5CE01DF91CF911F910F910C9468090B
:101D90008091CD05833519F481E090E00EC0843543
:101DA00019F482E090E009C08C3419F483E090E0EB
:101DB00004C0813431F484E090E090930501809375
:101DC00004010895209136069091BE07213208F053
:101DD0004AC0809134068111FCCF32E03093340642
:101DE00031E0309333063FEF30939C0710929B070E
:101DF00020939A07AEE9B7E04AE757E0FA013E2F91
:101E0000341B321718F43D913193F9CF10927907B2
:101E100020917907990F922B909379079091320630
:101E2000913061F410923206909179079093BB0043
:101E30009091BC0093FDF8CF95EC01C095EE909386
:101E4000BC00909134069230E1F390919C079F3F43
:101E500079F080919C07803241F080919C0780331B
:101E600031F084E005C081E003C082E001C083E07E
:101E7000109235061092360610929D0708959091A3
:101E80002007992339F08EBD00000DB407FEFDCF69
:101E90008EB5089528E030E040E8E0912307F09106
:101EA0002407508190912A07909595239083E09183
:101EB0002107F091220790912907542F582319F0F8
:101EC0005081952B03C05081909595239083E0918C
:101ED0002307F0912407508190912A07952B908336
:101EE000469521503109C9F6089585ED8093BC00CF
:101EF0008091BC0084FDFCCF10923406089540917F
:101F00005407262F30E0240F311D21323105DCF437
:101F1000209134062430C9F4FC0180E090E086175B
:101F200058F4309154072191DC01AE5CB84FA30FF7
:101F3000B11D2C930196F3CF80915407680F6093E5
:101F4000540780E0089581E0089582E0089508959F
:101F500081E090E03091310620913006321710F484
:101F600080E090E0919581959109089580913106E6
:101F700090913006891730F48F5F8093310680E0AE
:101F800090E008958FEF9FEF08958091300690E0E4
:101F900020913106821B91090895CF92DF92EF9232
:101FA000FF920F931F93CF93DF937C01262F972FE0
:101FB0008A0180919D07882391F0C62FD72F6E014B
:101FC000C40ED51ECC15DD0571F06991D701ED91D8
:101FD000FC910190F081E02DC7010995F3CF642FAA
:101FE000822F0E947F0FC801DF91CF911F910F9127
:101FF000FF90EF90DF90CF900895CF93DF931F92E3
:10200000CDB7DEB7698320919D072223D1F02091BF
:102010003606203240F021E030E0FC013383228399
:1020200080E090E015C080913506E82FF0E0E256A0
:10203000F84F998190838F5F8093350680933606A1
:1020400005C061E0CE0101960E947F0F81E090E023
:102050000F90DF91CF9108953FB7F89480912E07AC
:1020600090912F07A0913007B091310726B5A89B1A
:1020700005C02F3F19F00196A11DB11D3FBFBA2F1A
:10208000A92F982F8827820F911DA11DB11DBC017A
:10209000CD0142E0660F771F881F991F4A95D1F73F
:1020A000089580E094E0EAE0F1E0DF019C011D92F8
:1020B00021503040E1F70895CF93C82F80911B073E
:1020C0008F3F59F1E0912507F0912607808190918B
:1020D0002B07982B9083E0912707F0912807208108
:1020E00090912C07909592239083E0912507F09191
:1020F0002607208190912B079095922390838C2F17
:102100000E943F0FE0912507F09126079081809172
:102110002B07892B8083CF9108958091190791E037
:1021200090939D078093BE07109235061092360655
:1021300060E087E396E00E94FD0F6C2F87E396E056
:102140000E94FD0FCF910C94E20EEF92FF920F933D
:102150001F93CF93DF9381E20E945C1080E00E9486
:102160005C108FE70E945C1082E20E945C1080E0AD
:102170000E945C1087E00E945C1080911B078F3FDB
:1021800079F1E0912507F0912607908180912B0746
:10219000892B8083E0912707F09128079081809117
:1021A0002C07892B8083E0912507F09126079081E9
:1021B00080912B07809589238083CAE0D1E08991A3
:1021C0000E943F0F85E0CA30D807C9F7E091250784
:1021D000F0912607908180912B07892B808330C056
:1021E000F090B8008CE08093B800CAE0D1E0EE2413
:1021F000E39480911907E0929D078093BE071092A7
:1022000035061092360660E487E396E00E94FD0FE3
:1022100000E010E0FE01E00FF11F608187E396E02F
:102220000E94FD0F0F5F1F4F0031110599F70E94AB
:10223000E20E609685E0CA30D807D9F6F092B80071
:10224000DF91CF911F910F91FF90EF900895CF9361
:10225000DF93E091FF06F09100070190F081E02DFF
:10226000682F8FEF96E00995EC0164EC75E08FEF35
:1022700096E00E947C148C0F9D1FDF91CF910895F2
:102280008F929F92AF92BF92CF92DF92EF92FF9286
:102290000F931F93CF93DF93CDB7DEB7A1970FB600
:1022A000F894DEBF0FBECDBF6C01990FEE08FF089A
:1022B000F7FE33C0E091FF06F09100070190F08136
:1022C000E02D6DE28FEF96E009958C0122273327F0
:1022D000A9012C193D094E095F0919A2CE01819669
:1022E0007C019AE0892E912CA12CB12CCA01B90154
:1022F000A50194010E941A1E605DF70162937F019F
:10230000211531054105510589F7BF018FEF96E091
:102310000E947C14080F191F20C0A701960119A262
:102320008E010F5D1F4F8AE0C82ED12CE12CF12CBD
:10233000CA01B901A70196010E941A1E605DF80149
:1023400062938F01211531054105510589F7BF01C0
:102350008FEF96E00E947C148C0164EC75E08FEFA7
:1023600096E00E947C14800F911FA1960FB6F894FE
:10237000DEBF0FBECDBFDF91CF911F910F91FF90B8
:10238000EF90DF90CF90BF90AF909F908F90089587
:102390001F920F920FB60F9211242F933F934F93DA
:1023A0005F936F937F938F939F93AF93BF93EF93BD
:1023B000FF938091B900887F803609F49CC068F54E
:1023C000883209F45BC090F4803109F454C038F4C9
:1023D000882309F4F6C0883009F44DC0F6C088316E
:1023E00009F44CC0803209F45DC0EFC0803409F4B8
:1023F00068C048F4803309F455C0883309F0E5C05B
:1024000080939C07D8C0803509F44FC0883509F403
:102410005DC0883409F0D9C0D6C0883909F4C7C076
:10242000A8F4883709F467C038F4883609F463C023
:10243000803709F460C0C9C0883809F4B8C0803951
:1024400009F45FC0803809F0C0C05BC0803B09F46C
:1024500086C038F4803A09F466C0883A09F47FC02F
:10246000B4C0803C09F4A7C0883C09F4A4C0883BF0
:1024700009F48AC0AAC08091790710C090919B0787
:1024800080919A07981770F5E0919B0781E08E0F75
:1024900080939B07F0E0E658F84F80818093BB0063
:1024A00085EC86C080939C078EC0E0919B0781E0FD
:1024B0008E0F80939B078091BB00F0E0E658F84FA9
:1024C000808390919B0780919A076EC0E0919B0753
:1024D00081E08E0F80939B078091BB00F0E0E6586F
:1024E000F84F80838091330681116DC081E0809325
:1024F000320684EA61C083E0809334061092780744
:10250000CFCF80917807803208F051C0E0917807F2
:1025100081E08E0F809378078091BB00F0E0E85A4D
:10252000F84F8083BDCF85EC8093BC0010923406B9
:1025300080917807803230F4E0917807F0E0E85A33
:10254000F84F10826091780770E0E0915607F091A3
:10255000570788E597E009951092780736C084E020
:10256000809334061092550710925407E091520759
:10257000F0915307099580915407811105C081E0BE
:102580008093540710923207E091550781E08E0F37
:1025900080935507F0E0EE5CF84F80818093BB009C
:1025A0009091550780915407981708F479CF85E8E2
:1025B0008093BC000AC085EC8093BC001092340666
:1025C00004C010929C070E94750FFF91EF91BF917C
:1025D000AF919F918F917F916F915F914F913F91BB
:1025E0002F910F900FBE0F901F90189590E0FC0157
:1025F000EE58FA4F3491FC01E255FA4F2491FC0158
:10260000E656FA4FE491EE2309F43BC0332339F147
:10261000333091F038F43130A9F0323001F584B51F
:102620008F7D12C0373091F03830A1F03430B9F4DA
:10263000809180008F7D03C0809180008F77809390
:1026400080000DC084B58F7784BD09C08091B00033
:102650008F7703C08091B0008F7D8093B000F0E051
:10266000EE0FFF1FEA57FA4FA591B4918FB7F89478
:10267000EC91611103C020952E2301C02E2B2C93C9
:102680008FBF0895CF93DF9390E0FC01E255FA4F9E
:102690002491FC01E656FA4F8491882361F190E081
:1026A000880F991FFC01E859FA4FC591D491FC019C
:1026B000EA57FA4FA591B491611109C09FB7F894F8
:1026C0008881209582238883EC912E230BC0623071
:1026D00061F49FB7F8943881822F80958323888393
:1026E000EC912E2B2C939FBF06C08FB7F894E881F6
:1026F0002E2B28838FBFDF91CF9108958F929F92C9
:10270000AF92BF92CF92DF92EF92FF926B017C016A
:102710000E942C104B015C01C114D104E104F104AE
:10272000F1F00E942C10DC01CB0188199909AA094B
:10273000BB09883E9340A105B10570F321E0C21AA0
:10274000D108E108F10888EE880E83E0981EA11CEC
:10275000B11CC114D104E104F10419F7DDCFFF90DD
:10276000EF90DF90CF90BF90AF909F908F900895A3
:102770001F920F920FB60F9211242F933F938F93B6
:102780009F93AF93BF9380912C0690912D06A091BB
:102790002E06B0912F0630912D0723E0230F2D3701
:1027A00020F40196A11DB11D05C026E8230F029655
:1027B000A11DB11D20932D0780932C0690932D060B
:1027C000A0932E06B0932F0680912E0790912F078D
:1027D000A0913007B09131070196A11DB11D8093E2
:1027E0002E0790932F07A0933007B0933107BF9126
:1027F000AF919F918F913F912F910F900FBE0F90AE
:102800001F9018951F920F920FB60F9211242F93BD
:102810003F934F935F936F937F938F939F93AF9368
:10282000BF93EF93FF93E0910801F091090109959F
:10283000FF91EF91BF91AF919F918F917F916F9198
:102840005F914F913F912F910F900FBE0F901F906E
:1028500018950895CF92DF92EF92FF920F931F93F6
:10286000CF93DF936C017A018B01C0E0D0E0CE15ED
:10287000DF0589F0D8016D918D01D601ED91FC91B4
:102880000190F081E02DC6010995892B11F47E019C
:1028900002C02196ECCFC701DF91CF911F910F911C
:1028A000FF90EF90DF90CF9008951F920F920FB698
:1028B0000F9211242F933F934F935F936F937F93C6
:1028C0008F939F93AF93BF93EF93FF93E091060194
:1028D000F09107010995FF91EF91BF91AF919F9101
:1028E0008F917F916F915F914F913F912F910F90B9
:1028F0000FBE0F901F9018956115710579F0FB01BF
:1029000001900020E9F73197AF01461B570BDC011E
:10291000ED91FC910280F381E02D099480E090E03C
:1029200008950F931F93CF93DF93EC010E947C14C3
:102930008C0164EC75E0CE010E947C14800F911F25
:10294000DF91CF911F910F910895CF93DF931F9245
:10295000CDB7DEB7789484B5826084BD84B58160DC
:1029600084BD85B5826085BD85B5816085BD80915A
:102970006E00816080936E001092810080918100D2
:1029800082608093810080918100816080938100CA
:10299000809180008160809380008091B10084608C
:1029A0008093B1008091B00081608093B0008091ED
:1029B0007A00846080937A0080917A0082608093AC
:1029C0007A0080917A00816080937A0080917A0009
:1029D000806880937A001092C100E0915306F091D4
:1029E000540682E08083E0914F06F09150061082F9
:1029F000E0915106F091520687E6808310925B06C3
:102A0000E0915706F091580686E08083E0915506E4
:102A1000F0915606808180618083E0915506F091A7
:102A20005606808188608083E0915506F0915606B5
:102A3000808180688083E0915506F0915606808100
:102A40008F7D80831092FB061092FA061092F90691
:102A50001092F8061092F7061092F6068DEC90E0B0
:102A60009093FD068093FC069091EC06963108F059
:102A700057C025E530E03093F7062093F6062BEC9F
:102A800030E03093F9062093F80620E930E03093E7
:102A9000FB062093FA0620916800983050F031E050
:102AA0009E3008F430E081E001C0880F3A95EAF7E3
:102AB00001C084E0822B80936800983038F09E300B
:102AC00040F0963148F020E030E008C02DE630E0DC
:102AD00005C02BE630E002C02CE630E03093F4066F
:102AE0002093F306983030F481E001C0880F9A9566
:102AF000EAF70EC0292F30E09E3018F42850310933
:102B000002C02E50310981E001C0880F2A95EAF7F2
:102B10008093F5068091FC069091FD060197F1F7F0
:102B20008091FA069091FB06892B21F18091CA05CC
:102B30009091CB0526E0803E9207E1F0009711F0DE
:102B40000E947B0E8091FE068E7F8093FE0610927F
:102B5000C9051092C80580EE96E09093CB0580934E
:102B6000CA05E091F306F091F40690818091F50694
:102B7000892B80836CE775E080EE96E00E949114CB
:102B800082E080931A078CE38093190780911B07DA
:102B90008F3F09F4BDC061E080911D070E94421380
:102BA00061E080911F070E94421380911F07082E49
:102BB000000C990BFC01E656FA4FE491F0E0EE0FA1
:102BC000FF1FEA57FA4F259134913093260720933F
:102BD0002507FC01E255FA4FE491E0932B07809121
:102BE0001D07082E000C990BFC01E656FA4FE491E4
:102BF000F0E0EE0FFF1FEA57FA4F25913491309322
:102C0000280720932707FC01E255FA4FE491E0934F
:102C10002C078091200781113EC061E080911B0745
:102C20000E94421361E080911C070E944213809130
:102C30001C07082E000C990BFC01E656FA4FE49194
:102C4000F0E0EE0FFF1FEA57FA4F259134913093D1
:102C5000240720932307FC01E255FA4FE491E09307
:102C60002A0780911B07082E000C990BFC01E656E1
:102C7000FA4FE491F0E0EE0FFF1FEA57FA4F25916B
:102C800034913093220720932107FC01E255FA4F3B
:102C9000E491E093290780912007882309F45FC01D
:102CA0001FB7F8948091D505811127C0E4EAF5E0BB
:102CB0008491E8EBF5E09491E82FF0E0EE0FFF1F30
:102CC000E859FA4FA591B491EC91E92321F461E020
:102CD0008AE00E94F61261E08AE00E9442138CB5FD
:102CE00080618CBD8CB580648CBD61E08DE00E94FC
:102CF000421361E08BE00E9442138091D5058F5F03
:102D00008093D5051FBF80E58CBD81E08DBD27C0B8
:102D10001092310610923006109235061092360647
:102D20001092340681E0809333061092320661E0FF
:102D300082E10E94F61261E083E10E94F612809126
:102D4000B9008E7F8093B9008091B9008D7F809308
:102D5000B90088E48093B80085E48093BC0080913A
:102D60001E0787FD1EC061E00E94421361E0809152
:102D70001E070E94F61261E070E080E090E00E9481
:102D80007E1360E080911E070E94F6126AE070E0F8
:102D900080E090E00E947E1361E080911E070E9417
:102DA000F6128EEA0E945C1085ED0E945C1080E8AD
:102DB0000E945C1088EA0E945C108FE30E945C1005
:102DC00083ED0E945C1080E00E945C1080E40E9411
:102DD0005C108DE80E945C1084E10E945C1080E22F
:102DE0000E945C1080E00E945C1081EA0E945C10EE
:102DF00088EC0E945C108AED0E945C1082E10E94C7
:102E00005C1081E80E945C108FEC0E945C1089EDE0
:102E10000E945C1081EF0E945C108BED0E945C10A0
:102E200080E40E945C1084EA0E945C1086EA0E94A2
:102E30005C108EE20E945C108FEA0E945C1062E0DF
:102E400082E00E94421361E088E00E94421361E048
:102E500089E00E9442130E9451100E94910E0E942C
:102E6000A51039E2232E34E1332E49E1A42EB12CF2
:102E700059E4452E512C65E3C62ED12C7AE5672EF8
:102E8000712CE8EE8E2EE3E09E2E8091040190914D
:102E900005018230910509F442C41CF4019749F000
:102EA0007BC58330910509F47DC4049709F4F4C40B
:102EB00073C5E89830920701209206010E94910E96
:102EC00080EE96E00E94530D181619060CF064C5AA
:102ED0000091E6051091E705C80101969093E7057A
:102EE0008093E60580EE96E00E946B0DF801E353B7
:102EF000FA4F80838B3219F40E94C80E0BC48A32B9
:102F000009F04AC58091CD05863409F053C18091FE
:102F1000CE05863409F04EC12091CF052D3209F43B
:102F200064C0022E000C330B20533109289DA001F0
:102F3000299D500D389D500D11242091D005022E51
:102F4000000C330B2053310964E6629FC001639F7C
:102F5000900D1124840F951F2091D105022E000C95
:102F6000330B205331096AE0629FA001639F500D2B
:102F70001124840F951F2091D205022E000C330BD3
:102F800020533109820F931F909303018093020114
:102F90002091D3052D3619F421E030E00BC0233504
:102FA00029F49092DF058092DE0508C02D3431F4BB
:102FB00020E63AEE3093DF052093DE054091DE05F2
:102FC0005091DF05849F9001859F300D949F300DB7
:102FD0001124C901330FAA0BBB0B8093DA05909320
:102FE000DB05A093DC05B093DD051092100710926D
:102FF0000F0781E090E0909312078093110783E020
:1030000080931307EE24E394F12C08E110E026E30B
:1030100030E048E150E064E270E08FEF96E00E941B
:103020009D0A07E110E026E330E047E150E063E26B
:1030300070E08FEF96E00E949D0A06E110E026E323
:1030400030E046E150E062E270E08FEF96E00E94EF
:103050009D0A00E310E024E230E048E150E064E241
:1030600070E08FEF96E00E949D0A23E230E047E196
:1030700050E063E270E08FEF96E00E949D0A22E24A
:1030800030E046E150E062E270E08FEF96E00E94AF
:103090009D0A85E290E090930C0780930B07B09215
:1030A0000E07A0920D0766E48FEF96E00E94680974
:1030B00068E975E080EE96E00E94911461E088E096
:1030C0000E94F6128091CF058D32B1F181E080939C
:1030D000130721E030E0309312072093110730935B
:1030E000100720930F0781E290E090930C078093E4
:1030F0000B07D0920E07C0920D07809102019091AC
:1031000003010E94401182E390E090930C078093AA
:103110000B07D0920E07C0920D078091D3050E9435
:1031200027110E94A5106091DA057091DB0580914E
:10313000DC059091DD0534C081E090E090930301BF
:10314000809302018093130721E030E0309312074F
:10315000209311073093100720930F0781E290E02E
:1031600090930C0780930B07D0920E07C0920D0727
:1031700081E090E00E94401182E390E090930C0780
:1031800080930B07D0920E07C0920D078091D30554
:103190000E9427110E94A51068EE73E080E090E085
:1031A0000E947E130E94910E0E94A51060E088E0AC
:1031B0000E94F6128091CD05863409F052C18091AB
:1031C000CE05833509F04DC11092100710920F07FC
:1031D00081E090E0909312078093110793E0909321
:1031E0001307EE24E394F12C08E110E026E330E02D
:1031F00048E150E064E270E08FEF96E00E949D0AA3
:1032000007E110E026E330E047E150E063E270E0E0
:103210008FEF96E00E949D0A06E110E026E330E081
:1032200046E150E062E270E08FEF96E00E949D0A76
:1032300000E310E024E230E048E150E064E270E0B6
:103240008FEF96E00E949D0A23E230E047E150E0D4
:1032500063E270E08FEF96E00E949D0A22E230E088
:1032600046E150E062E270E08FEF96E00E949D0A36
:1032700085E290E090930C0780930B07B0920E07C5
:10328000A0920D0766E48FEF96E00E94680968E956
:1032900075E080EE96E00E94911461E088E00E9463
:1032A000F61221E030E0309303012093020131E077
:1032B0003093130781E090E09093120780931107F9
:1032C0009093100780930F0781E290E090930C0792
:1032D00080930B07D0920E07C0920D0781E090E01B
:1032E0000E94401182E390E090930C0780930B07BB
:1032F000D0920E07C0920D078091D3050E9427112E
:103300000E94A51068EE73E080E090E00E947E13BA
:103310001092100710920F0721E030E0309312074F
:103320002093110733E03093130708E110E02EE5F6
:1033300030E048E150E06CE470E08FEF96E00E94EE
:103340009D0A07E110E02EE530E047E150E06BE434
:1033500070E08FEF96E00E949D0A06E110E02EE5F6
:1033600030E046E150E06AE470E08FEF96E00E94C2
:103370009D0A00E310E02CE430E048E150E06CE40A
:1033800070E08FEF96E00E949D0A2BE430E047E169
:1033900050E06BE470E08FEF96E00E949D0A2AE413
:1033A00030E046E150E06AE470E08FEF96E00E9482
:1033B0009D0A8DE490E090930C0780930B07B092E8
:1033C0000E07A0920D0763E58FEF96E00E94680953
:1033D0006EE975E080EE96E00E94911461E089E06C
:1033E0000E94F61224E630E03093010120930001A0
:1033F00031E03093130781E090E0909312078093BF
:1034000011079093100780930F0750920C0740927A
:103410000B07D0920E07C0920D0784E690E00E9441
:10342000401170920C0760920B07D0920E07C09269
:103430000D078091D3050E9427110E94A51064E614
:1034400070E080E090E00E947E130E94910E0E9446
:10345000A51060E088E00E94F61260E089E00E941A
:10346000F6128091CD05833509F054C18091CE05C7
:10347000833509F04FC12091CF052D3209F464C086
:10348000022E000C330B20533109289DA001299DE9
:10349000500D389D500D11242091D005022E000CA6
:1034A000330B2053310964E6629FC001639F900D86
:1034B0001124840F951F2091D105022E000C330B8F
:1034C000205331096AE0629FA001639F500D1124CF
:1034D000840F951F2091D205022E000C330B205330
:1034E0003109820F931F9093010180930001209175
:1034F000D3052D3619F421E030E00BC0233529F433
:103500009092DF058092DE0508C02D3431F420E66C
:103510003AEE3093DF052093DE054091DE055091B1
:10352000DF05849F9001859F300D949F300D1124FD
:10353000C901330FAA0BBB0B8093D6059093D70517
:10354000A093D805B093D9051092100710920F07D9
:1035500081E090E0909312078093110783E08093BD
:103560001307EE24E394F12C08E110E02EE530E09F
:1035700048E150E06CE470E08FEF96E00E949D0A15
:1035800007E110E02EE530E047E150E06BE470E049
:103590008FEF96E00E949D0A06E110E02EE530E0F4
:1035A00046E150E06AE470E08FEF96E00E949D0AE9
:1035B00000E310E02CE430E048E150E06CE470E01F
:1035C0008FEF96E00E949D0A2BE430E047E150E047
:1035D0006BE470E08FEF96E00E949D0A2AE430E0F1
:1035E00046E150E06AE470E08FEF96E00E949D0AA9
:1035F0002DE430E030930C0720930B07B0920E07B8
:10360000A0920D0763E58FEF96E00E9468096EE9CE
:1036100075E080EE96E00E94911461E088E00E94DF
:10362000F61261E089E00E94F6128091CF058D329A
:1036300091F181E08093130781E090E0909312076D
:10364000809311079093100780930F0750920C07F7
:1036500040920B07D0920E07C0920D078091000197
:10366000909101010E94401170920C0760920B072B
:10367000D0920E07C0920D078091D3050E942711AA
:103680000E94A5106091D6057091D7058091D8054C
:103690009091D90531C024E630E0309301012093A8
:1036A000000181E08093130781E090E0909312077E
:1036B000809311079093100780930F0750920C0787
:1036C00040920B07D0920E07C0920D0784E690E05F
:1036D0000E94401170920C0760920B07D0920E0767
:1036E000C0920D078091D3050E9427110E94A5105A
:1036F00064E670E080E090E00E947E130E94910EEC
:103700000E94A51060E089E00E94F61260E088E067
:103710000E94F6121092E7051092E6053DC1E89866
:1037200030920701209206010E94511082E080939E
:10373000130721E030E030931207209311073093F4
:10374000100720930F0710920C0710920B0710928E
:103750000E0710920D0764EA75E08FEF96E00E9465
:10376000911480EE96E00E94530D181619060CF085
:1037700013C10091E6051091E705C80101969093E9
:10378000E7058093E60580EE96E00E946B0DF80158
:10379000E353FA4F80838B3209F4AECB8A3209F0BF
:1037A000FBC0B8CFE89830920701209206010E9432
:1037B000511082E08093130781E090E0909312070C
:1037C000809311079093100780930F0724E130E056
:1037D00030930C0720930B0710920E0710920D07E1
:1037E0006EEA75E08FEF96E00E94911480EE96E00D
:1037F0000E94530D18161906ECF40091E60510917D
:10380000E705C80101969093E7058093E60580EEF1
:1038100096E00E946B0DF801E353FA4F80838B32E0
:1038200019F40E94C80E02C08A3221F41092E705F2
:103830001092E60582E480937C0080917A00806497
:1038400080937A0080917A0086FDFCCF8091780089
:103850002091790090E0922B9093E5058093E40508
:1038600022E02093130721E030E0309312072093E9
:1038700011073093100720930F0710920C07109236
:103880000B0724E130E030930E0720930D070E94D0
:1038900040110E94A51080C080E99DE0909307012F
:1038A00080930601809169008C7F8260809369001B
:1038B000E89A0E94511082E08093130721E030E0E3
:1038C00030931207209311073093100720930F07AE
:1038D0008AE090E090930C0780930B0710920E07FC
:1038E00010920D0764EB75E08FEF96E00E94911443
:1038F0008091CC058823A1F1F8941092CC0568EE54
:1039000073E080E090E00E947E132FB7F8948091DE
:103910002C0690912D06A0912E06B0912F062FBF58
:103920008093E0059093E105A093E205B093E30551
:1039300061E088E00E94F61261E089E00E94F612E0
:1039400062E370E080E090E00E947E1360E089E036
:103950000E94F61260E088E00E94F61278941CC083
:1039600080EE96E00E94530D18161906ACF40091F3
:10397000E6051091E705C80101969093E70580934D
:10398000E60580EE96E00E946B0DF801E353FA4FD6
:1039900080838B3209F4B0CA6091040180E090E02A
:1039A00069830E94F01D6981681721F080E090E032
:1039B0000E94F81D0E94DE0368CA82E495E090939D
:1039C000E1068093E00680EE96E00C947B0E0F9368
:1039D0001F9310923A061092390608EE13E020E089
:1039E00030E000933B0610933C0620933D06309355
:1039F0003E068EE195E0909338068093370610924C
:103A000046061092450600934706109348062093F9
:103A1000490630934A0680E395E0909344068093EC
:103A2000430685EC90E09093500680934F0684EC1B
:103A300090E0909352068093510680EC90E0909332
:103A400054068093530681EC90E090935606809341
:103A5000550682EC90E0909358068093570686ECCA
:103A600090E090935A068093590610925C0610924B
:103A70005D0610925E0610925F0610920207109289
:103A8000010740E850E0509304074093030780E4A7
:103A900090E09093060780930507509308074093A2
:103AA000070790930A078093090710921407109252
:103AB0000C0710920B0710920E0710920D0761E091
:103AC000609313078FEF9FEF909312078093110776
:103AD0009093100780930F076093150710921607B5
:103AE000109218071092170784E595E0909300074D
:103AF0008093FF068FEF80931B0780931F078093AF
:103B00001D0780931C0784E080931E071092E30634
:103B10001092E2060093E4061093E5062093E60671
:103B20003093E70682E495E09093E1068093E00607
:103B30001092F7061092F6061092F9061092F80607
:103B40001092FB061092FA061092FD061092FC06E7
:103B50008091FE068E7F8D7F8093FE068695817014
:103B600068278AE00E94F61261E08AE00E94421310
:103B7000E8EBF5E0E491E093F006E4EAF5E0E491A7
:103B8000F0E0EE0FFF1FEA57FA4F85919491909362
:103B9000F2068093F10660E08BE00E944213809170
:103BA000FE0681FD04C061E08BE00E94F6128BE00E
:103BB0008093EC06E9EBF5E0E491E093ED06E5EAAD
:103BC000F5E0E491F0E0EE0FFF1FE057FA4F85912A
:103BD00094919093EF068093EE061F910F910895B4
:103BE000F999FECF92BD81BDF89A992780B50895C5
:103BF000262FF999FECF1FBA92BD81BD20BD0FB609
:103C0000F894FA9AF99A0FBE0196089597FB072E39
:103C100016F4009407D077FD09D00E943C1E07FCE3
:103C200005D03EF4909581959F4F089570956195CC
:103C30007F4F0895A1E21A2EAA1BBB1BFD010DC0E8
:103C4000AA1FBB1FEE1FFF1FA217B307E407F5074C
:103C500020F0A21BB30BE40BF50B661F771F881F28
:103C6000991F1A9469F760957095809590959B01BE
:103C7000AC01BD01CF010895AA1BBB1B51E107C0D8
:103C8000AA1FBB1FA617B70710F0A61BB70B881FEC
:103C9000991F5A95A9F780959095BC01CD0108957B
:103CA000EE0FFF1F0590F491E02D099481E090E064
:103CB000F8940C945B1E12E0C2EED2E004C0FE0148
:103CC0000E94501E2196C33ED107C9F7F894FFCF3A
:103CD0006400010001002914291400000000000004
:103CE00000000000000000000000000000000000D4
:103CF00000000000000000000000000000000000C4
:103D000000000000000000000000000000000000B3
:103D10000000000000000000008080800000000023
:103D200000000000000000000000008080C0C00013
:103D30000000000000000000000000000000000083
:103D40000000000000000000000000000000000073
:103D50000000000000000000000000000000000063
:103D6000000000000000000000000000000080C013
:103D7000E0F0F8FCF8E000000000000000000000A7
:103D800000000000000000808080808000808000B3
:103D9000000000808080808000FFFFFF00000000A6
:103DA0008080808000008080000080FFFF80800095
:103DB0008080008080808000808000000000008083
:103DC0008000008C8E84000080F8F8F880000000ED
:103DD00000000000000000000000F0F0F0F0F0F043
:103DE000F0F0F0F0F0F0E0E0C08000E0FCFEFFFF5B
:103DF000FF7FFFFFFFFFFF0000000000000000004A
:103E00000000000000FEFFC70101010183FFFF0069
:103E1000007CFEC70101010183FFFFFF0038FEC7E0
:103E20008301010183C7FFFF000001FFFF010100C3
:103E3000FFFF0701010100007FFF80000000FFFF7E
:103E40007F0000FFFFFF000001FFFFFF01000000F7
:103E500000000000000000000000030F3F7F7FFF14
:103E6000FFFFFFFFFFFFE7C7C78F8F9FBFFFFFC3A6
:103E7000C0F0FFFFFFFFFFFCFCFCFCFCFCFCFCF8BF
:103E8000F8F0F0E0C00001030303030301030300A3
:103E9000000000010303030301010301000000010E
:103EA00003030303010103030000000303000000F8
:103EB00003030000000000000001030303030301EB
:103EC00000000001030100000003030100000000E6
:103ED0000000000000000000000000000080C0E0C2
:103EE000F0F9FFFFFFFFFF3F1F0F87C7F7FFFF1F1F
:103EF0001F3DFCF8F8F8F87C7DFFFFFFFFFFFFFF98
:103F0000FF7F3F0F0700303000000000000000007E
:103F10000000000000000000000000000000FEFEA5
:103F2000FC00000000000000000000000000000095
:103F300000000000000000E0C000000000000000E1
:103F40000000000030300000000000000000000011
:103F50000000000000000000000000C0FEFFFFFFA6
:103F6000FFFFFFFFFFFF7F7F3F1F0F071F7FFFFF49
:103F7000F8F8FFFFFFFFFFFEF8E00000000100007F
:103F8000000000000000FEFE000000FCFEFC0C062D
:103F9000060EFCF80000F0F81C0E0606060CFFFFEB
:103FA000FF0000FEFE00000000FCFEFC00183C7E4E
:103FB00066E6CE84000006FFFF0606FCFEFC0C064B
:103FC00006060000FEFE0000C0F8FC4E4646464EC7
:103FD0007C7840183C76E6CECC80000000000000E3
:103FE00000000000000000000000000000000107C9
:103FF0000F1F1F3F3F3F3F1F0F0300000000000047
:104000000000000000000F0F0000000F0F0F000065
:1040100000000F0F000003070E0C18180C060F0FFE
:104020000F0000010F0E0C180C0F070100040E0CFE
:10403000180C0F070000000F0F00000F0F0F0000FB
:10404000000000000F0F00000007070C0C181C0CEC
:10405000060600040E0C180C0F07000000000000FC
:104060000000000000000000000000000000000050
:104070000000000000000000000000000000000040
:104080000000000000000000000000000000000030
:104090000000000000000000000000000000000020
:1040A0000000000000000000000000000000000010
:1040B0000000000000000000000000000000000000
:1040C00000000000000000000000000000000000F0
:1040D00000000000000000000000000103070F1FA7
:1040E0003F7F0080C0E0F0F8FCFE00000000FD0F04
:1040F000CD0F8D0DA70FC50FB60FA80F0000000044
:1041000075032A140D03BC033E031C033003000097
:104110000000FF0C2A148D0DFE0C530D6B0DE60CE8
:104120000000000068092A148D0D8C0D9E063B0CC2
:10413000340C0C0C280C1C0C3C0C0B0C3D073C07E5
:10414000E8034205320B140B9D0A3E0A496E69745E
:1041500069616C697A696E672049324320646576CB
:10416000696365732E2E2E00466F63757300536866
:104170006F6F740054494D454C41505345004C41BC
:1041800053455200414355535449434F0052454D06
:084190004F544F000D0A00001E
:00000001FF
